:102000000084FF1FD1210000217100002171000018
:102010002171000021710000217100002171000078
:10202000217100002171000021710000017D00007C
:102030002171000021710000217100003195000024
:10204000B190000021710000217100002171000099
:102050002171000021710000217100002171000038
:102060002171000021710000217100002171000028
:102070002171000021710000217100002171000018
:102080002171000021710000217100002171000008
:1020900021710000217100002171000021710000F8
:1020A0009193000021710000217100002171000056
:1020B00021710000217100002171000021710000D8
:1020C00021710000217100002171000021710000C8
:1020D00021710000217100002171000021710000B8
:1020E00021710000217100002171000021710000A8
:1020F00021710000818E0000C18E0000A18E0000C1
:10210000E18E0000217100002171000021710000AA
:102110002171000021710000217100002171000077
:102120002171000021710000217100002171000067
:102130002171000021710000217100002171000057
:102140002171000021710000217100002171000047
:102150002171000021710000217100002171000037
:1021600021710000619900002171000021710000BF
:102170002171000021710000217100002171000017
:102180002171000021710000217100002171000007
:1021900021710000D1670000217100002171000051
:1021A00021710000217100002171000021710000E7
:1021B00021710000217100002171000021710000D7
:0C21C000F1E20000A134000071340000C6
:1021D00072B6264880F3098825484EF60851CEF29B
:1021E00000010860022080F31488BFF36F8F04F0B1
:1021F0005FFF07F035FD4FF055301E491E4A9142F2
:102200003CBF41F8040BFAE71C49184A91423CBF15
:1022100041F8040BFAE71A491A4A1B4B9A423EBF8F
:1022200051F8040B42F8040BF8E700201749184A4C
:1022300091423CBF41F8040BFAE704F051FF04F06F
:102240003FFF144C144DAC4203DA54F8041B88478A
:10225000F9E704F0C5FE114C114DAC4203DA54F815
:10226000041B8847F9E704F033BF00000086FF1F16
:10227000002000000080FF1F0084FF1F0084FF1F5C
:10228000A40301000086FF1FB090FF1F0092FF1FF4
:10229000F8B5FF1FC0210000C8210000C8210000C0
:1022A000CC21000000000000000000000000000041
:1022B0002DE9F04FC1F80CD0C3689D46BDE8F08F02
:1022C000002383F311882846A047002005F0D0F9A9
:1022D00005F006F900DFFEE7000000000000000046
:1022E00081F0004102E000BF83F0004330B54FEAC7
:1022F00041044FEA430594EA050F08BF90EA020F34
:102300001FBF54EA000C55EA020C7FEA645C7FEAC6
:10231000655C00F0E2804FEA5454D4EB5555B8BFE9
:102320006D420CDD2C4480EA020281EA030382EA5A
:10233000000083EA010180EA020281EA0303362DEC
:1023400088BF30BD11F0004F4FEA01314FF4801CBF
:102350004CEA113102D0404261EB410113F0004FD1
:102360004FEA03334CEA133302D0524263EB430388
:1023700094EA050F00F0A780A4F10104D5F1200E26
:102380000DDB02FA0EFC22FA05F2801841F1000181
:1023900003FA0EF2801843FA05F359410EE0A5F155
:1023A00020050EF1200E012A03FA0EFC28BF4CF086
:1023B000020C43FA05F3C01851EBE37101F000453C
:1023C00007D54FF0000EDCF1000C7EEB00006EEB49
:1023D0000101B1F5801F1BD3B1F5001F0CD34908D3
:1023E0005FEA30004FEA3C0C04F101044FEA44522A
:1023F00012F5800F80F09A80BCF1004F08BF5FEAB1
:10240000500C50F1000041EB045141EA050130BD90
:102410005FEA4C0C404141EB010111F4801FA4F133
:102420000104E9D191F0000F04BF01460020B1FA88
:1024300081F308BF2033A3F10B03B3F120020CDAC0
:102440000C3208DD02F1140CC2F10C0201FA0CF09E
:1024500021FA02F10CE002F11402D8BFC2F1200C03
:1024600001FA02F120FA0CFCDCBF41EA0C019040B9
:10247000E41AA2BF01EB0451294330BD6FEA040402
:102480001F3C1CDA0C340EDC04F11404C4F12002ED
:1024900020FA04F001FA02F340EA030021FA04F3FF
:1024A00045EA030130BDC4F10C04C4F1200220FA56
:1024B00002F001FA04F340EA0300294630BD21FA94
:1024C00004F0294630BD94F0000F83F4801306BF5A
:1024D00081F480110134013D4EE77FEA645C18BF4E
:1024E0007FEA655C29D094EA050F08BF90EA020FE5
:1024F00005D054EA000C04BF1946104630BD91EADD
:10250000030F1EBF0021002030BD5FEA545C05D1DF
:102510004000494128BF41F0004130BD14F580041E
:102520003CBF01F5801130BD01F0004545F0FE4192
:1025300041F470014FF0000030BD7FEA645C1ABFC7
:10254000194610467FEA655C1CBF0B46024650EAFE
:10255000013406BF52EA033591EA030F41F400212A
:1025600030BD00BF90F0000F04BF0021704730B5B0
:102570004FF4806404F132044FF000054FF0000185
:1025800050E700BF90F0000F04BF0021704730B546
:102590004FF4806404F1320410F0004548BF40421B
:1025A0004FF000013EE700BF42004FEAE2014FEA70
:1025B00031014FEA02701FBF12F07F4393F07F4F4B
:1025C00081F06051704792F0000F14BF93F07F4F7D
:1025D000704730B54FF4607401F0004521F00041C0
:1025E00020E700BF50EA010208BF704730B54FF046
:1025F00000050AE050EA010208BF704730B511F04B
:10260000004502D5404261EB41014FF4806404F182
:1026100032045FEA915C3FF4DCAE4FF003025FEA04
:10262000DC0C18BF03325FEADC0C18BF033202EB8C
:10263000DC02C2F1200300FA03FC20FA02F001FAE6
:1026400003FE40EA0E0021FA02F11444C1E600BF85
:1026500070B54FF0FF0C4CF4E06C1CEA11541DBF38
:102660001CEA135594EA0C0F95EA0C0F00F0DEF803
:102670002C4481EA030621EA4C5123EA4C5350EAE8
:10268000013518BF52EA033541F4801143F4801339
:1026900038D0A0FB02CE4FF00005E1FB02E506F0CA
:1026A0000042E0FB03E54FF00006E1FB03569CF01F
:1026B000000F18BF4EF0010EA4F1FF04B6F5007F25
:1026C00064F5407404D25FEA4E0E6D4146EB060697
:1026D00042EAC62141EA55514FEAC52040EA5E5020
:1026E0004FEACE2EB4F1FD0C88BFBCF5E06F1ED8CA
:1026F000BEF1004F08BF5FEA500E50F1000041EB01
:10270000045170BD06F0004646EA010140EA0200AD
:1027100081EA0301B4EB5C04C2BFD4EB0C0541EACF
:10272000045170BD41F480114FF0000E013C00F3E4
:10273000AB8014F1360FDEBF002001F0004170BD08
:10274000C4F10004203C35DA0C341BDC04F1140421
:10275000C4F1200500FA05F320FA04F001FA05F2AD
:1027600040EA020001F0004221F0004110EBD3707A
:1027700021FA04F642EB06015EEA430E08BF20EAA6
:10278000D37070BDC4F10C04C4F1200500FA04F349
:1027900020FA05F001FA04F240EA020001F00041DB
:1027A00010EBD37041F100015EEA430E08BF20EA4E
:1027B000D37070BDC4F1200500FA05F24EEA020E96
:1027C00020FA04F301FA05F243EA020321FA04F0C5
:1027D00001F0004121FA04F220EA020000EBD3707C
:1027E0005EEA430E08BF20EAD37070BD94F0000F7C
:1027F0000FD101F00046400041EB010111F4801FB0
:1028000008BF013CF7D041EA060195F0000F18BF60
:10281000704703F00046520043EB030313F4801F9C
:1028200008BF013DF7D043EA0603704794EA0C0F56
:102830000CEA135518BF95EA0C0F0CD050EA41066C
:1028400018BF52EA4306D1D181EA030101F00041E9
:102850004FF0000070BD50EA410606BF1046194611
:1028600052EA430619D094EA0C0F02D150EA01361D
:1028700013D195EA0C0F05D152EA03361CBF10465E
:1028800019460AD181EA030101F0004141F0FE41FD
:1028900041F470014FF0000070BD41F0FE4141F481
:1028A000780170BD70B54FF0FF0C4CF4E06C1CEA81
:1028B00011541DBF1CEA135594EA0C0F95EA0C0F36
:1028C00000F0A7F8A4EB050481EA030E52EA0335F1
:1028D0004FEA013100F088804FEA03334FF0805512
:1028E00045EA131343EA12634FEA022245EA11153F
:1028F00045EA10654FEA00260EF000419D4208BFF0
:10290000964244F1FD0404F5407402D25B084FEA9C
:102910003202B61A65EB03055B084FEA32024FF448
:1029200080104FF4002CB6EB020E75EB030E22BFA5
:10293000B61A754640EA0C005B084FEA3202B6EB65
:10294000020E75EB030E22BFB61A754640EA5C0014
:102950005B084FEA3202B6EB020E75EB030E22BFA4
:10296000B61A754640EA9C005B084FEA3202B6EBA5
:10297000020E75EB030E22BFB61A754640EADC0064
:1029800055EA060E18D04FEA051545EA16754FEAC6
:1029900006164FEAC30343EA52734FEAC2025FEAE4
:1029A0001C1CC0D111F4801F0BD141EA00014FF073
:1029B00000004FF0004CB6E711F4801F04BF014344
:1029C0000020B4F1FD0C88BFBCF5E06F3FF6AFAE60
:1029D000B5EB030C04BFB6EB020C5FEA500C50F1F0
:1029E000000041EB045170BD0EF0004E4EEA113173
:1029F00014EB5C04C2BFD4EB0C0541EA045170BD7A
:102A000041F480114FF0000E013C90E645EA060EBD
:102A10008DE60CEA135594EA0C0F08BF95EA0C0FEB
:102A20003FF43BAF94EA0C0F0AD150EA01347FF433
:102A300034AF95EA0C0F7FF425AF104619462CE70A
:102A400095EA0C0F06D152EA03353FF4FDAE10466D
:102A5000194622E750EA410618BF52EA43067FF4BE
:102A6000C5AE50EA41047FF40DAF52EA43057FF44E
:102A7000EBAE12E7000000000000000000000000C4
:102A80004FF0FF3C06E000BF4FF0010C02E000BF3A
:102A90004FF0010C4DF804CD4FEA410C7FEA6C5C1D
:102AA0004FEA430C18BF7FEA6C5C1BD001B050EAC0
:102AB000410C0CBF52EA430C91EA030F02BF90EAAB
:102AC000020F0020704710F1000F91EA030F58BF6A
:102AD000994208BF90422CBFD8176FEAE37040F0CC
:102AE000010070474FEA410C7FEA6C5C02D150EA6A
:102AF000013C07D14FEA430C7FEA6C5CD6D152EA25
:102B0000033CD3D05DF8040B704700BF84461046E9
:102B100062468C461946634600E000BF01B5FFF7E8
:102B2000B7FF002848BF10F1000F01BD4DF808EDB8
:102B3000FFF7F4FF0CBF012000205DF808FB00BF89
:102B40004DF808EDFFF7EAFF34BF012000205DF8E3
:102B500008FB00BF4DF808EDFFF7E0FF94BF012030
:102B600000205DF808FB00BF4DF808EDFFF7CEFF31
:102B700094BF012000205DF808FB00BF4DF808ED70
:102B8000FFF7C4FF34BF012000205DF808FB00BF41
:102B90004FEA410212F5001215D211D56FF4787385
:102BA000B3EB625212D94FEAC12343F0004343EA28
:102BB000505311F0004F23FA02F018BF4042704703
:102BC0004FF00000704750EA013005D111F000408D
:102BD00008BF6FF0004070474FF00000704700BF23
:102BE0004A0011D212F5001211D20DD56FF478738C
:102BF000B3EB62520ED44FEAC12343F0004343EAE1
:102C0000505323FA02F070474FF00000704750EA2B
:102C1000013002D14FF0FF3070474FF00000704795
:102C20004FEA4102B2F1E04324BFB3F5001CDCF1EE
:102C3000FE5C0DD901F0004C4FEAC0024CEA507026
:102C4000B2F1004F40EB830008BF20F00100704755
:102C500011F0804F21D113F13872BCBF01F0004058
:102C6000704741F480114FEA5252C2F11802C2F18A
:102C7000200C10FA0CF320FA02F018BF40F001000B
:102C80004FEAC1234FEAD32303FA0CFC40EA0C00BD
:102C900023FA02F34FEA4303CCE77FEA625307D1FA
:102CA00050EA01331EBF4FF0FE4040F44000704731
:102CB00001F0004040F0FE4040F40000704700BFCB
:102CC00080F0004002E000BF81F0004142001FBFE1
:102CD0005FEA410392EA030F7FEA226C7FEA236CEA
:102CE0006AD04FEA1262D2EB1363C1BFD2184140DF
:102CF00048404140B8BF5B42192B88BF704710F075
:102D0000004F40F4000020F07F4018BF404211F017
:102D1000004F41F4000121F07F4118BF494292EA7F
:102D2000030F3FD0A2F1010241FA03FC10EB0C00AB
:102D3000C3F1200301FA03F100F0004302D5494238
:102D400060EB4000B0F5000F13D3B0F1807F06D3E5
:102D500040084FEA310102F10102FE2A51D2B1F1DD
:102D6000004F40EBC25008BF20F0010040EA0300D2
:102D70007047490040EB000010F4000FA2F101027F
:102D8000EDD1B0FA80FCACF1080CB2EB0C0200FA09
:102D90000CF0AABF00EBC25052421843BCBFD04057
:102DA0001843704792F0000F81F4000106BF80F4D1
:102DB00000000132013BB5E74FEA41037FEA226C94
:102DC00018BF7FEA236C21D092EA030F04D092F05F
:102DD000000F08BF0846704790EA010F1CBF002093
:102DE000704712F07F4F04D1400028BF40F00040F0
:102DF000704712F100723CBF00F50000704700F010
:102E0000004343F0FE4040F4000070477FEA226236
:102E100016BF08467FEA23630146420206BF5FEA07
:102E2000412390EA010F40F4800070474FF0000307
:102E300004E000BF10F0004348BF40425FEA000CCE
:102E400008BF704743F0964301464FF000001CE076
:102E500050EA010208BF70474FF000030AE000BFCC
:102E600050EA010208BF704711F0004302D540420A
:102E700061EB41015FEA010C02BF8446014600207C
:102E800043F0B64308BFA3F18053A3F50003BCFA97
:102E90008CF2083AA3EBC25310DB01FA02FC634444
:102EA00000FA02FCC2F12002BCF1004F20FA02F24B
:102EB00043EB020008BF20F00100704702F120023E
:102EC00001FA02FCC2F1200250EA4C0021FA02F29F
:102ED00043EB020008BF20EADC70704700000000EE
:102EE0004FF0FF0C1CEAD0521EBF1CEAD15392EAED
:102EF0000C0F93EA0C0F6FD01A4480EA010C4002C9
:102F000018BF5FEA41211ED04FF0006343EA501022
:102F100043EA5111A0FB01310CF00040B1F5000F64
:102F20003EBF490041EAD3715B0040EA010062F113
:102F30007F02FD2A1DD8B3F1004F40EBC25008BFFD
:102F400020F00100704790F0000F0CF0004C08BF1B
:102F500049024CEA502040EA51207F3AC2BFD2F1E8
:102F6000FF0340EAC250704740F400004FF00003F6
:102F7000013A5DDC12F1190FDCBF00F00040704730
:102F8000C2F10002410021FA02F1C2F1200200FA6E
:102F900002FC5FEA310040F1000053EA4C0308BF35
:102FA00020EADC70704792F0000F00F0004C02BF86
:102FB000400010F4000F013AF9D040EA0C0093F001
:102FC000000F01F0004C02BF490011F4000F013B5B
:102FD000F9D041EA0C018FE70CEAD15392EA0C0FC9
:102FE00018BF93EA0C0F0AD030F0004C18BF31F034
:102FF000004CD8D180EA010000F00040704790F00A
:10300000000F17BF90F0004F084691F0000F91F0AD
:10301000004F14D092EA0C0F01D142020FD193EA73
:103020000C0F03D14B0218BF084608D180EA0100FB
:1030300000F0004040F0FE4040F40000704740F0D7
:10304000FE4040F4400070474FF0FF0C1CEAD052A5
:103050001EBF1CEAD15392EA0C0F93EA0C0F69D001
:10306000A2EB030280EA010C49024FEA402037D06C
:103070004FF0805343EA111143EA10130CF0004063
:103080008B4238BF5B0042F17D024FF4000C8B4253
:1030900024BF5B1A40EA0C00B3EB510F24BFA3EB33
:1030A000510340EA5C00B3EB910F24BFA3EB910303
:1030B00040EA9C00B3EBD10F24BFA3EBD10340EA5D
:1030C000DC001B0118BF5FEA1C1CE0D1FD2A3FF6A3
:1030D00050AF8B4240EBC25008BF20F00100704758
:1030E0000CF0004C4CEA50207F32C2BFD2F1FF03FB
:1030F00040EAC250704740F400004FF00003013A2C
:1031000037E792F0000F00F0004C02BF400010F4CF
:10311000000F013AF9D040EA0C0093F0000F01F0E3
:10312000004C02BF490011F4000F013BF9D041EA05
:103130000C0195E70CEAD15392EA0C0F08D1420238
:103140007FF47DAF93EA0C0F7FF470AF084676E70B
:1031500093EA0C0F04D14B023FF44CAF08466EE7E4
:1031600030F0004C18BF31F0004CCAD130F00042B2
:103170007FF45CAF31F000437FF43CAF5FE700BF0A
:103180004FF0FF3C06E000BF4FF0010C02E000BF33
:103190004FF0010C4DF804CD4FEA40024FEA4103D5
:1031A0007FEA226C18BF7FEA236C11D001B052EA8B
:1031B000530C18BF90EA010F58BFB2EB030088BF51
:1031C000C81738BF6FEAE17018BF40F001007047C0
:1031D0007FEA226C02D15FEA402C05D17FEA236CA2
:1031E000E4D15FEA412CE1D05DF8040B704700BFE9
:1031F000844608466146FFE70FB5FFF7C9FF002880
:1032000048BF10F1000F0FBD4DF808EDFFF7F4FFB8
:103210000CBF012000205DF808FB00BF4DF808ED51
:10322000FFF7EAFF34BF012000205DF808FB00BF74
:103230004DF808EDFFF7E0FF94BF012000205DF896
:1032400008FB00BF4DF808EDFFF7D2FF94BF012047
:1032500000205DF808FB00BF4DF808EDFFF7C8FF40
:1032600034BF012000205DF808FB00BF0000000013
:103270004FEA40024FEA41037FEA226C02D15FEA43
:10328000402C08D17FEA236C02D15FEA412C02D1A5
:103290004FF0000070474FF0010070470000000041
:1032A0004FEA4002B2F1FE4F0FD34FF09E03B3EB53
:1032B00012620DD94FEA002343F0004310F0004F93
:1032C00023FA02F018BF404270474FF000007047E9
:1032D00012F1610F01D1420205D110F0004008BF88
:1032E0006FF0004070474FF0000070470000000092
:1032F00042000ED2B2F1FE4F0BD34FF09E03B3EB60
:10330000126209D44FEA002343F0004323FA02F08B
:1033100070474FF00000704712F1610F01D1420277
:1033200002D14FF0FF3070474FF00000704700BFF0
:10333000844641EA000313F003036DD1403A41D3C0
:1033400051F8043B40F8043B51F8043B40F8043B7F
:1033500051F8043B40F8043B51F8043B40F8043B6F
:1033600051F8043B40F8043B51F8043B40F8043B5F
:1033700051F8043B40F8043B51F8043B40F8043B4F
:1033800051F8043B40F8043B51F8043B40F8043B3F
:1033900051F8043B40F8043B51F8043B40F8043B2F
:1033A00051F8043B40F8043B51F8043B40F8043B1F
:1033B00051F8043B40F8043B51F8043B40F8043B0F
:1033C000403ABDD2303211D351F8043B40F8043BAF
:1033D00051F8043B40F8043B51F8043B40F8043BEF
:1033E00051F8043B40F8043B103AEDD20C3205D3BF
:1033F00051F8043B40F8043B043AF9D2043208D0B7
:10340000D2071CBF11F8013B00F8013B01D30B8828
:1034100003806046704700BF082A13D38B078DD006
:1034200010F003038AD0C3F10403D21ADB071CBFD8
:1034300011F8013B00F8013B80D331F8023B20F842
:10344000023B7BE7043AD9D3013A11F8013B00F87B
:10345000013BF9D20B7803704B7843708B78837003
:1034600060467047000000000000000000000000FF
:1034700010B5054C227832B9044B13B10448AFF3B0
:1034800000800123237010BD0092FF1F0000000088
:10349000A403010000000000000000000000000084
:1034A000074B10B51BB107490748AFF30080074829
:1034B000036823B1064B13B1BDE81040184710BD97
:1034C000000000000492FF1FA4030100B090FF1F42
:1034D00000000000000000000000000000000000EC
:1034E00038B52A4C2A4D04220121204605F010FB54
:1034F00004221146204605F00BFB0422052120463C
:1035000005F006FB04220621204605F001FB0422FB
:103510000721204605F0FCFA28460622022105F084
:10352000F7FA28460622032105F0F2FA2846062279
:10353000122105F0EDFA284606224035132105F048
:10354000E7FA06220021284605F0E2FA06220921C0
:10355000284605F0DDFA06220A21284605F0D8FAA9
:1035600006220B21284605F0D3FA06220021204628
:1035700005F0CEFA1222002106480AF011FE064B91
:1035800000221A605A601A7238BD00BFC0F00F40A6
:1035900040F00F402092FF1F3292FF1F00000000FA
:1035A0002DE9F041DFF80C813C4C3D4D0026771EA3
:1035B000072F05D8DFE807F01B1D202326292C2F15
:1035C00004236B60022004F05BF8D8F81030D8F8C0
:1035D0001020DB0803F01E03C2F340021343072F41
:1035E0001DD8DFE807F04345484B4E515457082398
:1035F000E7E74FF48023E4E74FF40023E1E70123FA
:103600006360DFE74FF40073FAE74FF48063F7E796
:103610004FF40063F4E70123C8F80430D2E7042232
:10362000AA60204AB15C9942174607D093551E4BB9
:1036300001221A7002F084FA1C4B18800136092E00
:10364000B5D1194C227872B1184B188802F090FA53
:10365000052808D9164A0023F95C99540133092B2F
:10366000FAD1002323700120BDE8F0810822D7E7BA
:103670004FF48022D4E74FF40022D1E70122A26068
:10368000CFE74FF40072FAE74FF48062F7E74FF4A8
:103690000062F4E70122C8F80820C2E780F00F407A
:1036A00040F00F403292FF1F1C92FF1F1E92FF1F1F
:1036B0002092FF1FC0F00F4000000000000000003B
:1036C000014B185C704700BF2092FF1F00000000F4
:1036D0002DE9F0471148DFF85480114E114F02F0E8
:1036E000DFFB00242146404602F0DAFBDFF840A071
:1036F00014F80690002549FA05F3DB074CBF504645
:103700003846013502F0CCFB052DF4D106480134D2
:1037100002F0C6FB122CE5D1BDE8F087E8E300001B
:103720002092FF1FFFE3000039EA0000F7E30000EA
:10373000FDE30000000000000000000000000000A9
:103740000131064A01EBC101002352FA81F1C25C4A
:10375000CA540133092BFAD1704700BF2092FF1FD2
:1037600070470000000000000000000000000000A2
:10377000074B40F213225A604FF411729A6003F51E
:10378000804340F213321A604FF451725A6070470E
:103790000090044000000000000000000000000055
:1037A000154941F23C028B5843F080738B50134B08
:1037B00000224FF6FF715A6099602421D960596147
:1037C000D961082119601A619A611A6203F54723C9
:1037D00080335A6942F002025A615A6942F0040287
:1037E0005A615A690A435A61054B40F244425A6091
:1037F0009A60DA60704700BF0070044000800340A8
:1038000000B00440000000000000000000000000C4
:10381000024B186199611A62704700BF0080034033
:1038200001207047000000000000000000000000C0
:1038300001207047000000000000000000000000B0
:1038400008B5FFF7F5FF08BD00000000000000000C
:1038500037B50388ADF804300546019801F020FF24
:103860000199C0B200F05CFA29460446FFF7E8FF70
:1038700018B90024204603B030BD2946204600F088
:10388000DFFA0028F5D047F213039C4200F2E580EE
:1038900047F202039C4227D2B4F5E04F0CD047F226
:1038A00001039C4214D0754B01221A705A702846AD
:1038B000FFF7B6FF0446DDE7AB78002BD9D001F067
:1038C000F7FA46F2A81003F0DBFE02F069F9D0E740
:1038D000AB78002BCDD06A4802F0E2FA694A13783F
:1038E00043F001031370C4E7AB78002BDFD002F084
:1038F00097F808B902F07CF802F0C2F8624B47F280
:1039000002029442188007D11A7842F001021A701C
:10391000187802F0BDF8ACE747F20302944203D1F5
:103920001A7842F00202F2E747F20402944203D10D
:103930001A7842F00402EAE747F20502944203D102
:103940001A7842F00802E2E747F20602944203D1F5
:103950001A7842F01002DAE747F20702944203D1E4
:103960001A7842F02002D2E747F20802944203D1CB
:103970001A7842F04002CAE747F20902944203D1A2
:103980001A7842F08002C2E747F20A02944203D159
:103990001A7842F00C02BAE747F20B02944203D1C4
:1039A0001A786FF30002B2E747F20C02944203D197
:1039B0001A786FF34102AAE747F20D02944203D14D
:1039C0001A786FF38202A2E747F20E02944203D103
:1039D0001A786FF3C3029AE747F20F02944203D1B9
:1039E0001A786FF3041292E747F21002944203D15F
:1039F0001A786FF345128AE747F21102944203D115
:103A00001A786FF3861282E747F2120294421A780C
:103A100002D16FF3C7127AE702F0FB02D9E7AC7864
:103A20002CB100241C70022001F042F822E71B7820
:103A30002BB9262000F074FF262001F009F802209F
:103A400001F046F816E75B782BB9272000F068FFF5
:103A5000272000F0FDFF2020F2E747F23B039C42C5
:103A6000064BDCD047F23C0294427FF41CAFAC78AA
:103A7000002CE8D000245C702020D5E73B92FF1F8B
:103A80006EE5000011A0FF1F1CA0FF1F000000003A
:103A9000C1F3072307B503EB83025A2303FB00207E
:103AA00050FA81F0944BADF8041033F8100000F098
:103AB0004FF9B0F5804F68D2B0F5405F80F0B2802A
:103AC000DF2853D8C02880F09580A72809D8A528DA
:103AD00080F0978001284FD001D304284CD20020D9
:103AE0004AE0BC28FBD8A82800F0C980A92800F02B
:103AF000C980AA2800F0C980AB2800F0C980AC2892
:103B000000F0C980BB2800F0C980BC2800F0C98043
:103B1000AD2800F0C980B02800F0C980AE2800F0C0
:103B2000C980AF2800F0C980B12800F0C980B22850
:103B300000F0C980B32800F0C980B42800F0C98023
:103B4000B52800F0C980B62800F0C980B72800F079
:103B5000C980B82800F0C980B92800F0C980BA2807
:103B600044F22A6018BF4FF4884005E0FF2806D8C9
:103B7000F02850D2E728B2D803B05DF804FBB0F5C6
:103B8000005F4CD2C0F30C00F6E7B0F5A64F19D297
:103B9000B0F5A44FC3B254D2B0F5A24F4CD2B0F599
:103BA000A04F43D303F0030101228A40C0F3011068
:103BB00042F40C4242EA0020C3F3810340EA43137B
:103BC00098B2D9E7B0F5AA4F08D2B0F5A84FC0B265
:103BD00041D34AF2F40343EA0020CDE7B0F5AC4FFD
:103BE00044D3A0F5C043B3F5805FBFF478AFC0F312
:103BF0000B003EE000F10040C038404B33F81000AD
:103C0000BAE739D044F2820344F28302A62814BFF3
:103C100010461846B0E740F4A04080B2ACE7C0F3CD
:103C20000B00EAE7C0B240F44040A5E700F4706042
:103C300043F4204318439FE74AF2F10040EA03208F
:103C40009AE79A08012003F00303984040EA4210E3
:103C500040F40C40E1E78208012300F0030003FA7E
:103C600000F040EA421040F40A40D6E7000200F4B7
:103C7000F85040F400507FE744F281007CE744F2C2
:103C8000E24079E744F2E94076E744F2EA4073E73C
:103C900044F2B54070E744F2B6406DE744F2B340F9
:103CA0006AE744F2B44067E744F2B74064E744F29D
:103CB000CC4061E744F2CD405EE744F283505BE7DD
:103CC00044F28A5058E744F2925055E744F2945037
:103CD00052E744F221604FE744F223604CE744F29C
:103CE000246049E744F2256046E744F2266043E752
:103CF00044F2276040E700BF06E4000002E4000051
:103D000000207047000000000000000000000000DC
:103D100070470000000000000000000000000000EC
:103D2000C1F3072303EB83025A2303FB002050FA5D
:103D300081F0034B33F8100082B002B0704700BF2F
:103D400006E4000000000000000000000000000089
:103D500082281AD00CD8312854D004D829284AD027
:103D60002A2856D0704735283ED039280DD07047C4
:103D7000E32823D004D8E0280ED0E22813D07047DF
:103D8000E62822D0E72829D07047264B1B7813F06D
:103D9000030F18BFE0207047224B1B7813F0010F70
:103DA00018BF392070471F4B1B7859071BD513F0DC
:103DB000100F08BFE32018BF00207047194B1B7875
:103DC0005A072DD413F0100FF5E7164B1B7819077F
:103DD00009D513F0100F08BFE720ECE7114B1B7853
:103DE0001A07EFD5E62070470E4B1B7813F0200F13
:103DF00018BF292070470B4B1B7813F0200F18BFFA
:103E000035207047074B1B7813F0400F18BF2A204E
:103E10007047044B1B7813F0400F18BF31207047D8
:103E2000E22070471CA0FF1F0000000000000000FF
:103E300070470000000000000000000000000000CB
:103E40008B7870B5054613B90124204670BD134E1A
:103E50003478A4B947F214039842F5D1FFF7E8FF8C
:103E60000123337001F06CFE0D4B18800D4B1C705C
:103E70000D4B1C805C809C80DC801C81E5E7084B3E
:103E8000188801F075FEC728DED8064A064913785F
:103E900021F81350013313700024D6E74C92FF1F12
:103EA0004A92FF1F4892FF1F3E92FF1F0000000032
:103EB0002DE9F84F234FDFF890A081468846002671
:103EC000464501D1BDE8F88F59F826503B682C468D
:103ED0005A1C4AF8235014F8043B3A605BB9204658
:103EE00000F0BEF8688800EB40003430204400F059
:103EF000B7F80136E4E7012B0ED14FF0080B20464E
:103F000000F0AEF86B8803EB43033433BBF1010BD5
:103F10001C44F4D12046EAE7204600F0A1F86B8863
:103F200003EB430334331C444FF0080B204600F0EE
:103F300097F86B8803EB43030433BBF1010B1C447C
:103F4000F4D1D6E75092FF1F5492FF1F00000000EB
:103F500070B513460D468A181A4912F8012C0968E3
:103F60008A422DD2184951F822104E885A1E964284
:103F700026D111F8042B0F3382B903EB43031C1D28
:103F80000C442146304600F093F832462946FFF7AC
:103F9000CFF92046BDE8704000F092B8022A09D15E
:103FA00003EB4303A3F12C040138043300FB043377
:103FB000CC18E6E7182202FB031303F12004E0E724
:103FC00070BD00BF5092FF1F5492FF1F0000000001
:103FD0002DE9F843204FDFF8848000253B689D429F
:103FE00001D3BDE8F88358F82540214611F8043B79
:103FF00013F0FD0F14D16088103080B200F038F853
:10400000014658B16388C55462882078013292B263
:1040100000280CBFFF20002000F0EAF80135DDE7A2
:104020008946012660881030494680B200F020F8A9
:10403000014638B16388C5546288013292B2F0B249
:1040400000F0D6F86388013603EB43033433092EBE
:104050009944E7D1E2E700BF5092FF1F5492FF1F3F
:1040600021230370704700000000000000000000E2
:1040700030B5202383F311880D78C5F3801393B1F5
:10408000C5F3011205F0CC04144305F0030544EA1E
:10409000051424F0400401F8044B002383F3118835
:1040A00002FB001030BD83F31188184630BD0000BC
:1040B0000B780A1DC3F3810300FB03207047000047
:1040C000202383F311880278C2F3810122F03003A8
:1040D00043EA0113C2F3011223F00C0343EA820303
:1040E00043F040030370002383F3118870470000FE
:1040F000042AF0B51AD9043A8E18DFF834E037688C
:104100000D464FF0FF33AE4207D1DB439F420DD146
:1041100092B2BDE8F04000F03BB815F8014B5C40AE
:10412000E4B25EF8244084EA1323ECE7F0BD00BF5C
:1041300080E500000000000000000000000000001A
:10414000F0B40C4F15460E464FF0FF3315F1FF3516
:1041500006D2DB438B50043292B2F0BC00F0D0B8F0
:1041600016F8014B5C40E4B257F8244084EA13236C
:10417000ECE700BF80E50000000000000000000048
:10418000014B1870704700BF9492FF1F00000000A1
:10419000F8B5144D2F780C46164657B101281FD19B
:1041A0003444013A14F8010C92B2BDE8F840FFF72C
:1041B000CFBE551E78B94B5DDB0702D5AAB2FFF71B
:1041C000C7FE635D5B086355324621460120BDE8AA
:1041D000F840FFF7B5BF4B5D01334B553846F6E766
:1041E000F8BD00BF9492FF1F000000000000000017
:1041F00030B40546094C40B924786CB901248C547C
:10420000224492B230BCFFF79BBF207820B18D547E
:10421000013292B20120F5E730BC70479492FF1F43
:1042200073B50D4602A9144601F8013D0122064668
:1042300000F02EF9AC4205D9621B92B229463046F5
:1042400000F026F902B070BD000000000000000080
:10425000054B00221A805A801A71A3F80624A3F88D
:10426000082483F80A2470479692FF1F000000007C
:1042700030B440F206441F4D44432B192A5B42B927
:104280002953A1F1FF046142614119715A8030BC88
:104290007047013A92B22A5361B93AB95A88002A52
:1042A000F5D00534291930BCFFF722BF29535980B6
:1042B0001971ECE75888B0F5806F07D1A1F1FF00C4
:1042C00029534142414119710022DFE762B91A794D
:1042D000295322B1A1F1FF0251425141E8E7411CAB
:1042E000598003445A71D2E7421C5A8003445971E1
:1042F000CDE700BF9692FF1F000000000000000005
:10430000F7B5002305468DF807307AB18E180C46B4
:104310000123B4420CD322462846DBB2FFF780FFCC
:1043200001220DF10701284600F0B2F803B0F0BDFC
:10433000FF2B05D122462846FFF772FF2146E7E70B
:10434000274617F8012B42B9DBB222462846FFF771
:1043500067FF394601233C46DBE701339BB2FAE7AE
:104360000020704700000000000000000000000076
:104370007047000000000000000000000000000086
:104380007047000000000000000000000000000076
:10439000F0B585B00F460023102269460C3003F0BB
:1043A000FFFD6C4605460DEB0006B44202D32846DD
:1043B00005B0F0BD14F8011B3846FFF759FFF4E7CC
:1043C000F0B591B04FF0FF33012201A92048214EF2
:1043D000214D224F03F0D4FA4FF47973022206A93B
:1043E0001F4803F0CDFA4FF4797304220BA91D483E
:1043F00003F0C6FA33782878042B08BF40F0010098
:104400002870FFF7BDFE00213846FFF7C1FF0121EC
:1044100004461548FFF7BCFF002C08BF00280CBF5E
:1044200001240024FFF7D4FD002CE3D00F494FF006
:10443000FF3003F00DFB8207044602D506A803F007
:10444000B7FA6307D6D50BA803F0B2FAD2E700BFDC
:10445000BC9AFF1F48A6FF1FA29AFF1F54A4FF1F6C
:10446000DCA2FF1F58A4FF1FD8A2FF1FA0860100D7
:104470007047000000000000000000000000000085
:104480007047000000000000000000000000000075
:1044900001284FF0FF330CBF0148024803F030BE43
:1044A00008A3FF1F84A4FF1F0000000000000000FD
:1044B00001492220FFF7FCBD0886FF1F0000000015
:1044C000084910B44C8804F1100303EB4303A3F133
:1044D0002C02043300FB023304312046194410BC83
:1044E000FFF7C6BD0486FF1F0000000000000000AB
:1044F00001491120FFF7DCBD4888FF1F00000000C4
:104500000349488800EB400319443831FFF7B0BD38
:104510004488FF1F000000000000000000000000B1
:10452000104B37B50024104D1C70FFF721F9022104
:104530000E48FFF7BDFCFFF78BFE29460C4803F041
:10454000DFFE29460B4803F0DBFE0B4B0B481B60DC
:104550007F2200940A4B4FF4996103F039F803B0BD
:1045600030BD00BF889FFF1F0086FF1F8888FF1F88
:10457000D8A2FF1F54A4FF1FBC9AFF1FC09AFF1FA1
:10458000C143000000000000000000000000000027
:104590000021014803F04CBABC9AFF1F0000000044
:1045A00008B50348FFF78CFDBDE80840FFF7F0BFF2
:1045B0000886FF1F0000000000000000000000004F
:1045C00008B50348FFF77CFDBDE80840FFF7E0BFF2
:1045D0004888FF1F000000000000000000000000ED
:1045E000F0B587B0FFF78CFF10B1234B01221A7092
:1045F0000024224F264601ADE0B2FFF761F8E35DEB
:1046000060550134834218BF46F00106122CF3D1E5
:104610001B4B1C4A996A1EB91368CB1A642B1ED90E
:10462000164B11602C4605AE224603CAB2421860F2
:104630005960144603F10803F6D112881A80FFF777
:1046400037FF0023EA5CC2540133122BFAD1FFF783
:10465000A7FFFFF74DFF01230370FFF7B1FF002015
:10466000FFF72EFF28B1002107B0BDE8F040FFF7AB
:1046700067B807B0F0BD00BF889FFF1FA39AFF1F58
:1046800038A2FF1FB89AFF1F0000000000000000C2
:10469000014B1878704700BF889FFF1F0000000083
:1046A000004870479088FF1F0000000000000000D5
:1046B000014B1860704700BF8C9FFF1F0000000077
:1046C000024B186808B10368184770478C9FFF1F9A
:1046D000F8B5124B1B680446FBB1114D5B68984757
:1046E0002B78580719D5D90702D50E4801F0D8FB09
:1046F0000D4F04F110062B78DA0703D521783846E0
:1047000001F0CEFB0134B442F5D12B78DB0704D5A0
:104710000648BDE8F84001F0C3BBF8BD8C9FFF1F01
:1047200011A0FF1F80E9000092E9000039EA0000B3
:10473000024B1B680BB19B68184770478C9FFF1F8B
:10474000054B1988814205D01880044B1B680BB1BA
:10475000DB681847704700BF929FFF1F8C9FFF1FA9
:10476000054B1988814205D01880044B1B680BB19A
:104770001B691847704700BF909FFF1F8C9FFF1F4A
:1047800008B501F0D5F9FEF7ABFEBDE8084001F031
:1047900077BC0000000000000000000000000000E6
:1047A00038B50E4C23780546580711D5D90702D5E0
:1047B0000B4801F075FB2378DA0703D52946094831
:1047C00001F06EFB2378DB0702D5074801F068FB98
:1047D0002846BDE83840FEF7C3BF00BF11A0FF1F49
:1047E00098E90000ABE9000039EA00000000000091
:1047F0002DE9FF47FEF7D4FE384EDFF8F090002495
:1048000037465FFA84F84046FEF75AFFA55DA84296
:10481000824616D10134122CF3D1FF238DF80830D3
:104820008DF8093000238DF80A3001F089F940F045
:104830000100ADF80C0004AB13E9030000F058F8D8
:1048400028E099F80030980701D5FEF741FF8AEA81
:1048500005050023EDB245FA03F1C907DAB236D5F2
:1048600001259D401AEA050F14BF012300238DF88E
:1048700002308DF800208DF8018001F061F940F0E0
:104880000100ADF804009DE8030000F031F83B5D45
:104890006B403B5501F0F4FEFFF7A2FE104B1C6885
:1048A000104B1D68FFF70CFF2946024620460E4CB0
:1048B00005F026FDFFF704FF237883420BD0FFF7B6
:1048C000FFFE207004B0BDE8F047FFF769BF013379
:1048D000052BC0D19EE704B0BDE8F087959FFF1F70
:1048E000F49FFF1FF89FFF1F949FFF1F11A0FF1F42
:1048F0001FB58DE80300002103919DE8030002AA83
:104900000290ADF80C1092E8030000F061FD05B0D4
:104910005DF804FB00000000000000000000000043
:1049200008B5002800F09080021FD2B2A02A05D856
:1049300000F03EFFBDE8084001F032B800F120026F
:10494000D2B2072A07D800F0070301209840C0B26E
:1049500000F0BEFFEEE700F15B02D2B2022A0BD8F4
:10496000A52807D0A6280CBF82208320BDE80840D8
:10497000FFF7E6BE8120F9E700F15802D2B2142A0F
:1049800062D8A8282ED0A9282ED0AA282ED0AB28AD
:104990002ED0AC282ED0BB282ED0BC282ED0AD28AF
:1049A0002ED0B0282ED0AE282ED0AF282ED0B128B1
:1049B0002FD0B22830D0B32831D0B42832D0B52887
:1049C00033D0B62834D0B72835D0B82836D0B92857
:1049D00037D0BA2840F22A2018BF0020BDE808408E
:1049E000FFF7BEBEE220F9E7E920F7E7EA20F5E7A6
:1049F000B520F3E7B620F1E7B320EFE7B420EDE709
:104A0000B720EBE7CC20E9E7CD20E7E740F28310C1
:104A1000E4E74FF4C570E1E74FF4C970DEE74FF407
:104A2000CA70DBE740F22120D8E740F22320D5E727
:104A30004FF40970D2E740F22520CFE740F226205C
:104A4000CCE740F22720C9E708BD000000000000C5
:104A500008B5034648B3021FD2B2A02A05D800F019
:104A6000EFFEBDE8084000F09BBF00F12002D2B28B
:104A7000072A07D800F0070301209840C0B200F0D1
:104A80002FFFEEE700F15B02D2B2022A04D8002029
:104A9000BDE80840FFF754BE5833DBB2142B04D8EE
:104AA0000020BDE80840FFF75BBE08BD0000000025
:104AB00008B528B100F00CFFBDE8084000F070BF59
:104AC00008BD000000000000000000000000000021
:104AD00008B528B100F004FFBDE8084000F060BF51
:104AE00008BD000000000000000000000000000001
:104AF0002DE9F8438679857807460C4636090DB1CD
:104B000000F00EFF00F044FE804670B11DB304F1CA
:104B10002003DBB2072B1ED9022000F021FE00F09B
:104B200037FE80F001005FFA80F8C4F303330F2BE7
:104B300042D8DFE813F0130013005C005C0098001B
:104B4000AD0041004100B70041000F010F016B01B2
:104B50004100410074014FF00008E6E7C4F3072369
:104B600013F0F00F16BF2609C4F3032606F0F00673
:104B70005FFA84F985B146B12034E4B2072C30469F
:104B800007D800F0A5FE00F00BFF4846FFF7C8FE6F
:104B900012E000F0B5FEF6E74846FFF759FF5EB1B8
:104BA00009F120095FFA89F9B9F1070F30461BD8DE
:104BB00000F096FE00F0F4FEB8F1000F00F0368130
:104BC00000F0BEFD10F0010040F03081B87000F040
:104BD000AFFD00F015FD384600F02AF900F0A8FD01
:104BE000BDE8F84300F01CBD00F092FEE2E7C4F31C
:104BF000072303F0F003202B18BF4FEA1419E0B28B
:104C00000CBFC4F3032909F0F00950B101281ED0EC
:104C100025B346B1BB79D907B8D56FF30713BB717C
:104C200001E055B11EB94846FFF742FFC4E7012E27
:104C30004846F9D100F094FEBEE72EB900F098FE88
:104C40004846FFF745FFB7E7012EF7D1B4E715B1A6
:104C5000052EB1D8E7E7042EAED8F1E7002EEFD04D
:104C6000FFF7F6FEA8E7C4F381233BB1012BA3D1E4
:104C700065B1C4F30900FFF773FD9DE725B1C4F3E7
:104C80000900FFF75DFD97E72846FAE72846F2E7B7
:104C9000E0B225B101F08CFB01F08AFC8CE701F059
:104CA000F7FBF9E714F4407F26D1002D84D1C4F33B
:104CB00042108000E206C3B204F00F0000FA03F6CF
:104CC00044BF0F209840C4F381244CBFC043284602
:104CD000022C07D00AD8012C40EA060009D000F0C7
:104CE00067FC69E7304300F06BFC65E700F060FCAF
:104CF000304600F055FC5FE7FDB1C4F30023002B04
:104D00003FF45AAFC4F342108000C3B204F00F0066
:104D100000FA03F514F010001CBF0F209840C4F3F4
:104D2000812418BFC043022C0AD00DD8012C40EAC0
:104D300005000CD000F09CFC3EE7C4F34023DEE706
:104D4000284300F09DFC37E700F092FC284600F075
:104D500087FC31E7E0B2A0F1E003142B4FD8DFE885
:104D600003F00B0B0B0B0B0B0B0B0B0B0B0B0B0BB6
:104D70000B0B18232930390000F00F06C4F3042070
:104D80001DB100F03DFC30464EE700F049FC3046D6
:104D900057E73DB1042E3FF60FAFC4F3042000F0F7
:104DA0004FFC09E7052EF6E735B1C4F3042000F007
:104DB00027FC01E7002DF8D0C4F3042000F030FCFC
:104DC000FAE625B1C4F3042000F00AFCF4E600F092
:104DD000FFFBF1E64DB1C4F30424204600F010FCC3
:104DE0000321204600F0B4FCE6E6012000F0B8FC08
:104DF000012E7FF6E1AE022000F0B2FCDCE615B138
:104E0000002ED2D0C2E6002ED6D029E7C4F303226A
:104E1000E1B23846FEF774FF00F052FBCCE6C4F373
:104E20000322E1B23846FEF773FFC5E6BDE8F8831A
:104E3000838837B50446DBB1437802788DF80130BA
:104E40008DF80020BDF800204FF6FF739A420FD076
:104E5000FEF7FEFC60B12188A07800F059FC054601
:104E600000F016FC00F08CFB29462046FFF740FEC0
:104E700003B030BD00000000000000000000000092
:104E800008B500F04DFD00F063FD00F011FD00F0ED
:104E900087FD01F08DFC01F08BFB0020FFF750FC3B
:104EA0000020BDE80840FFF75BBC000000000000E8
:104EB00008B500F01DFDBDE80840FFF7E1BF0000A8
:104EC00007B5ADF80400019800F012FCC0F30333FD
:104ED0000E3303F00F020D2A12D80123934013F46E
:104EE000105F0FD140F20332134009D0C0B2F02856
:104EF00002D003D8DF2803D8012005E0F428FBD036
:104F0000002001E0C0F3C02003B05DF804FB000006
:104F100082B002AB03E9030002B07047000000005A
:104F200082B002AB03E9030002B07047000000004A
:104F300070B5094B094E1C78094D3378A34200D156
:104F400070BD05EBC40355F8340059680134FFF710
:104F5000E7FF04F00704F0E7F19FFF1FF09FFF1F3A
:104F6000B09FFF1F000000000000000000000000D4
:104F7000024B18685968FFF7D3BF00BFA89FFF1FF7
:104F8000284A93791B092DE9F3410CD1937853B149
:104F9000254BDFF89CE01978244D4FF6FF769EF8FC
:104FA00000308B4202D102B0BDE8F0819388002B23
:104FB00033D0177892F801C08DF800708DF801C0D9
:104FC000BDF80000B04228D0C8002C1894F8018029
:104FD000E04522D115F831C0BC451ED1A778E7B90C
:104FE000A4889C4236BFF31AE31A1B19C72BCCBF07
:104FF000002301238BB19379012161F3071393718E
:105000002B1808489A7961F307129A71FFF710FF7D
:1050100002B0BDE8F041FFF78BBF013101F007019D
:10502000BDE700BFA89FFF1FF19FFF1FB09FFF1F9D
:10503000F09FFF1F000000000000000000000000C3
:105040002DE9F043A34C064695B0A5880068009072
:10505000EC4632787378B778B6F8048020786178B7
:10506000002D00F03F818DF808008DF80910BDF883
:1050700008904FF6FF7EF14500F0348194F80290DD
:10508000B9F1000F00F02E81A84536BFAEEB050543
:10509000A8EB05054544C72DCCBF0025012594F894
:1050A00006E0002D00F0C9801EF0F00F7CD18DF8D5
:1050B00011108DF81000BDF810004FF6FF718842F6
:1050C00017D1B8F1000F67D08DF838208DF839303E
:1050D000BDF838004FF6FF7188425DD0B846002F0A
:1050E0005AD17D497D48097890F800C0DFF8F0E199
:1050F00027E08DF800208DF801302188BDF80000F0
:105100008842DED1002FDCD1012363F3071E84F82F
:1051100006E0FFF72DFF6F48FFF78AFEA379B37112
:10512000002535E00EEBC10090F80190994505D1BE
:105130001EF83190914501D1807868BB013101F0B2
:1051400007016145EED18DF800208DF801300098FF
:1051500000F0CEFAC0F30332C3B2032A0BD8DFE863
:1051600002F002020F0F10F4706F00D07BB12033F9
:10517000DBB2072B0BD93046FFF75AFEA84606E0F4
:1051800010F4706FF3D0B27912F0F00FEFD1454602
:10519000284615B0BDE8F0833D46002FF8D0A3792E
:1051A00043F00103A371BBE78DF819108DF81800C7
:1051B000BDF818004FF6FF7188420BD18DF8002022
:1051C0008DF801300098FFF77BFED0B93046FFF72D
:1051D0002FFE30E08DF800208DF801302188BDF8D9
:1051E00000008842EAD1002FE8D186F806E0304678
:1051F000FFF71EFE3368236073686360FFF7B8FE35
:10520000C6E7002FE2D0A3791F2B0CD92288ADF876
:10521000402000228DF84220ADF844808DF84630C1
:1052200010A8FFF705FE3368236073686360FFF71B
:10523000A7FEFFF79DFE0125AAE71EF0F00F11D192
:105240008DF800208DF801308DF80270ADF80480E3
:105250009DE80300FFF75CFE1E48FFF7E9FD2560AF
:105260006560CBE78DF821108DF82000BDF8200097
:105270004FF6FF71884219D18DF800208DF801306A
:105280000098FFF71DFE0028A0D0002F9ED0A37924
:105290001F2BC8D92288ADF8482000228DF84A205B
:1052A000ADF84C808DF84E3012A8BAE78DF800208A
:1052B0008DF801302188BDF800008842DCD1002F34
:1052C000DAD186F806E03046FFF7B2FD256065606A
:1052D0004D465DE7A89FFF1FF19FFF1FF09FFF1F37
:1052E000B09FFF1F002D65D08DF828008DF8291084
:1052F000BDF828904FF6FF7EF1455BD094F8029000
:10530000B9F1000F56D1A84536BFAEEB0505A8EBA5
:1053100005054544C72DCCBF00250125002D3CD0F7
:105320003D46002F3FF452AF8DF831108DF830001C
:10533000BDF830004FF6FF71884211D18DF8002082
:105340008DF801300098FFF7BBFD00287FF46BAFAC
:10535000A379304643F00103A371FFF769FD17E716
:105360008DF800208DF801302188BDF800008842BA
:10537000E4D1A379DA070BD41A0909D01A090F2A44
:1053800018BF0132B3711CBF62F30713B3712EE76C
:105390003368236073686360FAE68DF800208DF847
:1053A00001308DF80270ADF804809CE80300FFF72F
:1053B000AFFD54E7002F3FF409AF8DF800208DF8C2
:1053C00001300098FFF77CFD00283FF4FFAE2AE78C
:1053D000F0B589B08DE803006846FFF731FE334F22
:1053E000334D0646D8B1BDF804308BB19DF801307D
:1053F0009DF800208DF809308DF80820BDF80820B0
:105400004FF6FF739A4203D09DE80300FFF788FD33
:10541000284C28783B7883422BD109B0F0BD9DE819
:10542000030006AB83E80300BDF804009DF80010FC
:105430009DF801200028EBD08DF811208DF8101078
:10544000BDF810104FF6FF729142E1D03C782978F8
:10545000621C02F007028A421FD0164E3A7003CB3C
:1054600006EBC40E46F83400CEF80410FFF760FDDA
:10547000CEE704EBC000FFF7E3FD0028CDD02B788A
:1054800004EBC30254F833005168FFF749FD2B7851
:10549000013303F007032B70BBE7FFF709FD064B51
:1054A0003E702E701E605E60B7E700BFF09FFF1F6A
:1054B000F19FFF1FB09FFF1FA89FFF1F000000006C
:1054C000F8B50346002853D0002501261878732824
:1054D00003F1010406D8042820D201280AD00228AA
:1054E0001FD0F8BD752835D02AD3A0F184036F2BC7
:1054F00033D9F8BD9C1C5B7803F12002D2B2072A95
:105500000BD803F007039840C0B200F011FA00F086
:1055100047FA2F4637BB2346D8E71846FFF700FA6D
:10552000F7E758789C1C00F12003DBB2072B16D854
:1055300000F0070006FA00F0C0B200F001FAE6E75A
:105540005F789C1C002FE4D06420013F02F098F8A3
:10555000FFB2F7E79C1C5D78DBE700F07F00FFF708
:1055600077FAD6E76420013F02F08AF8FFB2D1E76C
:10557000F8BD000000000000000000000000000076
:105580007047000000000000000000000000000064
:10559000014B1860FFF774BCF49FFF1F0000000070
:1055A000024A136818431060FFF76ABCF49FFF1F9C
:1055B000024A136818401060FFF762BCF49FFF1F97
:1055C000024A136858401060FFF75ABCF49FFF1F4F
:1055D000024B00221A60FFF753BC00BFF89FFF1F69
:1055E000012303FA00F0024B1860FFF749BC00BF2B
:1055F000F89FFF1F000000000000000000000000F6
:10560000044A012303FA00F0136818431060FFF7FF
:1056100037BC00BFF89FFF1F000000000000000023
:10562000044A012303FA00F0136823EA000313601D
:10563000FFF726BCF89FFF1F0000000000000000DD
:10564000044A012303FA00F0136858401060FFF782
:1056500017BC00BFF89FFF1F000000000000000003
:10566000024A136818431060FFF70ABCF89FFF1F37
:10567000024A136818401060FFF702BCF89FFF1F32
:10568000024A136858401060FFF7FABBF89FFF1FEB
:105690007047000000000000000000000000000053
:1056A0000E4B73B51D680E4BADF804001B681F242C
:1056B0001D4325FA04F3DB0766B206D414F1FF3468
:1056C000F7D20026304602B070BD0199E0B2FEF775
:1056D000DFF980B20128F1D0F4E700BFF89FFF1F87
:1056E000F49FFF1F00000000000000000000000009
:1056F00007B5ADF804000198FFF7D2FF0199C0B2D9
:10570000FEF7C6F903B05DF804FB000000000000DE
:1057100007B5ADF804100198FFF7EAFF03B05DF894
:1057200004FB00000000000000000000000000007A
:10573000024B93F90000C0F3C70070470DA0FF1F94
:10574000024B187800F00700704700BF0DA0FF1F44
:10575000024B41EAC0011970FFF752BF0DA0FF1FB5
:10576000084A92F9003023EA000040B21070420764
:1057700006D1DBB2834203D0C0F3C700FFF750BFAE
:10578000704700BF0DA0FF1F0000000000000000D8
:10579000034B187810F0070018BF0120704700BFB6
:1057A0000DA0FF1F0000000000000000000000002E
:1057B00030B41C4B1B780146CBB11B4B1B78B3B1EB
:1057C000C2080E2A0BD8194B1B68134400F00700BF
:1057D0000121814058780143597030BC7047144B07
:1057E0001B78DB07F9D5134830BC00F059BB0F4BD1
:1057F00018680022851C4FF0FF3315F8014BA142B9
:10580000EBD0B3F1FF3F02D1002C08BF13460132A9
:10581000D4B20E2C62B2F0D15A1CDED0034499707F
:10582000DBE700BFB288FF1FA488FF1FA888FF1F07
:1058300011A0FF1FB0E90000000000000000000000
:1058400010B4164B1B780146D3B1154B1B78BBB176
:10585000C2080E2A0CD8134B1B68134400F0070132
:1058600001208840597821EA0001597010BC704726
:105870000D4B1B78DB07F9D50C4810BC00F010BBB2
:10588000084B1A680020931C10321C788C4208BF09
:10589000187001339342F8D1E8E700BFB288FF1FC8
:1058A000A488FF1FA888FF1F11A0FF1FCEE90000DA
:1058B000044B1B6800215A1C103302F8011B9A424A
:1058C000FBD17047A888FF1F000000000000000007
:1058D000024A137818431070704700BF0FA0FF1FD3
:1058E000024A137823EA0000107070470FA0FF1FD0
:1058F000014B00221A7070470FA0FF1F000000002C
:10590000024A137818431070704700BF10A0FF1FA1
:10591000024A137823EA00001070704710A0FF1F9E
:10592000014B00221A70704710A0FF1F00000000FA
:10593000024A137818431070704700BF0CA0FF1F75
:10594000024A137823EA0000107070470CA0FF1F72
:10595000014B00221A7070470CA0FF1F00000000CE
:10596000014B1870704700BF0EA0FF1F0000000021
:10597000014B00221A7070470EA0FF1F00000000AC
:10598000064B1B6800205A1C103312F8011B09B18A
:105990000130C0B29A42F8D1704700BFA888FF1FFB
:1059A00038B50D4B0D4A1C680D4B12781B780D4D08
:1059B00013430D4A1278134395F90020237032B136
:1059C00013432370FFF7DCFF08B100232B70204640
:1059D000BDE83840FEF77CBEA888FF1F10A0FF1F5F
:1059E0000FA0FF1F0EA0FF1F0CA0FF1F0000000054
:1059F00008B54FF6ED61002000F0FAFA0021022010
:105A000000F0EEFA0021032000F0EAFA0021042061
:105A100000F0E6FA00210520BDE8084000F0E0BAF9
:105A200008B5002000F0ACFA4FF6ED63C31A5842F7
:105A3000584108BD00000000000000000000000008
:105A4000022000F085BA0000000000000000000005
:105A50000146022000F0C4BA00000000000000006F
:105A6000032000F075BA00000000000000000000F4
:105A70000146032000F0B4BA00000000000000005E
:105A8000042000F065BA00000000000000000000E3
:105A90000146042000F0A4BA00000000000000004D
:105AA00040F2A46001F0ECBD000000000000000026
:105AB000704700000000000000000000000000002F
:105AC000704700000000000000000000000000001F
:105AD00010B5FFF7EDFFFDF763FDFFF7F1FF0024C1
:105AE000E0B2FDF7EDFD18B90134122CF8D110BD6C
:105AF000012010BD000000000000000000000000B8
:105B000008B5FFF7F5FEFFF70BFFFFF7D1FE00F03A
:105B10004FFE0020FEF714FE0020BDE80840FEF70F
:105B20001FBE000000000000000000000000000098
:105B300070470000000000000000000000000000AE
:105B4000202383F31188084B00229B6A82F311887B
:105B50004FF47A70584300F5C330044B9F30B0FBCC
:105B6000F3F080B2704700BF38A2FF1FA08601008B
:105B7000094B0A499A6A01FB00F303F2E7334FF439
:105B80007A70B3FBF0F3D31A584300F5C3309F305B
:105B9000B0FBF1F080B2704738A2FF1FA086010071
:105BA0000A4B0B4A30B503F11005186859681446C2
:105BB00003C40833AB422246F7D118689B88A38000
:105BC000044B2060044ADA6030BD00BF10E30000DF
:105BD00000E0034000ED00E00400FA0500000000D2
:105BE000F0B50124B0FBF4F58D4203D200271CB9B7
:105BF0001C70F0BD4C43F5E7B0FBF4F604FB160057
:105C0000B4FBF1F41FB9002E01DC002CEFD1092EFA
:105C100003F1010E08DD002A14BF3725572535444E
:105C20001D7001377346E2E73025F8E700000000F9
:105C3000F0B50124B0FBF4F58D4203D200271CB966
:105C40001C70F0BD4C43F5E7B0FBF4F604FB160006
:105C5000B4FBF1F41FB9002E01DC002CEFD1092EAA
:105C600003F1010E08DD002A14BF372557253544FE
:105C70001D7001377346E2E73025F8E700000000A9
:105C80002DE9F041069D002B06460F4614BF4FF04C
:105C900030084FF020082B4613F8011B49B9144671
:105CA000002C08DD41463046B847013CF8E7013A90
:105CB000F2E7002AFBDC15F8011B09B9BDE8F08109
:105CC0003046B847F7E70000000000000000000081
:105CD0002DE9F04F89B081468A4615461C4605AF2E
:105CE000297889B3252903D048460135D047F7E7FD
:105CF0006A78302A08BFAA78A2F1300319BFAE1C17
:105D00004FF0000BEE1C4FF0010B092B4FF0000879
:105D10000CD8A2F13003D9B2092918D9A2F1610334
:105D2000052B1AD8A2F157030A2B10DD6C2A6DD16E
:105D30003278632A06F1010550D015D8252A60D0A3
:105D4000582A21D0002ACBD109B0BDE8F08F0A2211
:105D500002FB083816F8012BDBE7A2F14103052B03
:105D6000E4D8A2F13703DFE7732A3FD008D8642ACA
:105D7000B6D12068002804F104060FDB3B4613E08F
:105D8000752A6BD0782AABD1A2F15800424204F1B7
:105D900004063B4642411021206807E02D238DF880
:105DA000143040420DF1150300220A21FFF718FFBD
:105DB000344600975B46424651464846FFF760FF2F
:105DC0008EE72D238DF8143040420DF1150300228B
:105DD0000A21FFF72DFF3546039CEAE72E4621787E
:105DE0004846251DD0472C46354679E72E46236880
:105DF00000934246002351464846251DFFF740FFC9
:105E0000F1E72E4625214846D047EDE7632AE6D044
:105E100006D8252AF6D0582A12D0002A94D0E3E7D3
:105E2000732AE4D008D8642ADED12068231D002814
:105E30000393C6DB3B46CAE7752A14D0782AD3D130
:105E4000A2F158014A4204F104054A4120683B4648
:105E500010212C46FFF7ECFE3546AAE7261D3B46EF
:105E600000220A2198E7231D039300223B460A21C2
:105E70002068AEE700000000000000000000000005
:105E8000024B1960024B1860704700BF14A0FF1F3F
:105E900018A0FF1F0000000000000000000000002C
:105EA0000FB407B5074908480968006804AB53F800
:105EB000042B0193FFF70CFF03B05DF804EB04B073
:105EC000704700BF14A0FF1F18A0FF1F00000000B4
:105ED000024A5378DB07FCD5704700BF0000024040
:105EE0007FB5164B6A4603F110066D46186859686F
:105EF000144603C40833B3422246F7D1104C6378EA
:105F0000990708D40E4944F621634A78D20713D47E
:105F1000013BFAD110E08023E3713923E3720323BC
:105F2000A37272B645F001032046984762B6237803
:105F300013F07003E6D0237004B070BD26E30000B8
:105F4000000002400000000000000000000000000F
:105F50001F2810B5044609D8054B5B78DB0701D430
:105F6000FFF7BEFF04F1A054207810BD002010BD43
:105F700000000240000000000000000000000000DF
:105F80001E2810B5044609D8054B5B78DB0701D401
:105F9000FFF7A6FF04F1A054208810BD002010BD1B
:105FA00000000240000000000000000000000000AF
:105FB0001F2838B504460D460FD8084B5B78DB0721
:105FC00001D4FFF78DFF04F1A0542378AB4204D035
:105FD0002570BDE83840FFF77BBF38BD00000240A8
:105FE000FFF7E6BF00000000000000000000000016
:105FF00038B505460C46C9B2FFF7DAFF210A681C1E
:10600000BDE83840FFF7D4BF0000000000000000EA
:106010002DE9F34100250746EEB23046FDF750FB6F
:106020000024804648FA04F2D207E3B209D40134CE
:10603000052CF7D10135122DEED1002002B0BDE8BC
:10604000F0818DF804308DF8056001990020FDF78E
:1060500067FE8742EBD10120F0E70000000000005E
:1060600010B504462C20FFF7D3FF20B12046BDE831
:106070001040FFF7CDBF10BD000000000000000081
:1060800010B5FFF7CDFC08B9FFF7B2FC8548FFF764
:1060900007FF6524013C14F0FF0440F0D7808248DC
:1060A000FFF7FEFE2920FFF7DBFF002840F0F98014
:1060B0002A20FFF7D5FF08B1FFF79AFC0520FFF76C
:1060C000CFFF08B1FFF76CFDFFF7BAFC774C2070EB
:1060D0000720FFF7C5FF68B11B20FFF7C1FF0028AD
:1060E00000F0BB802378C3F3400282F0010262F328
:1060F0004103237020786E4CFFF7AAFCFFF7C0FC29
:106100002080E020FFF7ACFF38B12378C3F3000212
:1061100082F0010262F3000323703920FFF7A0FF31
:1061200038B12378C3F3400282F0010262F34103E5
:106130002370E220FFF794FF38B12378C3F3800285
:1061400082F0010262F382032370E620FFF788FFEA
:1061500038B12378C3F3C00282F0010262F3C303B3
:106160002370E320FFF77CFF38B12378C3F30012DC
:1061700082F0010262F3041323703520FFF770FFF1
:1061800038B12378C3F3401282F0010262F3451361
:1061900023703120FFF764FF38B12378C3F38012F6
:1061A00082F0010262F3861323701120FFF758FF7B
:1061B00038B12378C3F3C01282F0010262F3C7132F
:1061C00023702078FFF764FC23783A4AC3F3C013A6
:1061D00027201370FFF744FF04461E20FFF740FFFF
:1061E00010B144F00204E4B21F20FFF739FF10B1F0
:1061F00044F00404E4B22020FFF732FF10B144F071
:106200000804E4B22120FFF72BFF10B144F0100482
:10621000E4B22220FFF724FF10B144F02004E4B2DE
:106220002320FFF71DFF10B144F04004E4B2242006
:10623000FFF716FF80B364F07F04E4B22046FFF757
:1062400017FC2046BDE81040FFF7A2B9FDF7A8F9FA
:106250004FF47A7001F014FA1CE70E20FFF700FFEC
:1062600038B12378C3F3800282F0010262F3820323
:106270003FE71020FFF7F4FE237830B1C3F3C002EC
:1062800082F0010262F3C30333E7C3F3000282F03A
:10629000010262F300032CE7002CCFD1FFF7E0FBF3
:1062A000D0E710BDECE9000001EA000011A0FF1FDB
:1062B0001CA0FF1FA488FF1F0000000000000000BA
:1062C000194B1B78D9070AD5184B187800EB8000BA
:1062D000C0F38F007F2825D810BB012070479A0794
:1062E00006D5124B187800EB8000C0F34F00F1E7A1
:1062F0005B0704D50D4B187800EB8000EAE70C4BE8
:106300001B7863B10B4A12789342F3D2074908789D
:1063100000EB8000584390FBF2F080B2DAE70520F2
:10632000C0B270477F20704725A0FF1FAE88FF1FB7
:1063300026A0FF1FAF88FF1F000000000000000024
:10634000144B1B78D90705D5134B18788008F0B982
:10635000012070479A0703D50F4B18784008F6E7DD
:106360005B0705D50C4B18787F28F0D97F20704744
:106370000A4B1B7853B10A4A12789342F2D206496B
:10638000087810FB03F090FBF2F0EDE70120C0B2BB
:10639000704700BF25A0FF1FB088FF1F26A0FF1F6A
:1063A000B188FF1F00000000000000000000000096
:1063B000F02808B505D1FFF783FF40422F4B9870B6
:1063C00008BDF12802D1FFF77BFFF7E7F22805D1DE
:1063D000FFF776FF4042294B587008BDF32802D1E1
:1063E000FFF76EFFF7E7F92804D1FFF7A9FF234B6A
:1063F000D87008BDFA2803D1FFF7A2FF4042F6E7A4
:10640000FB2805D1FFF79CFF40421C4B187108BDCB
:10641000FC2802D1FFF794FFF7E7F42804D1174ACC
:10642000137843F0010313E0F52804D1134A1378DD
:1064300043F002030CE0F62804D1104A137843F02D
:10644000040305E0F72805D10C4A137843F008034C
:10645000137008BDF82804D1084A137843F01003DC
:10646000F6E7FD2801D1064ADAE7FE2801D1044A01
:10647000DDE7FF28EDD1024AE0E700BF20A0FF1FC3
:1064800025A0FF1F00000000000000000000000029
:10649000F028414B14D193F90220002A01DA00229E
:1064A0009A7093F9012052B993F902203AB993F9FD
:1064B000032022B993F904300BB9384A137070479E
:1064C000F12804D193F90220002AE8DCE9E7F22858
:1064D00006D193F90120002AE3DA00225A70E0E79E
:1064E000F32804D193F90120002AF6DCD9E7F92832
:1064F00006D193F90320002AD3DD0022DA70D0E719
:10650000FA2804D193F90320002ACADAF5E7FB2818
:1065100006D193F90420002AC3DA00221A71C0E7D9
:10652000FC2804D193F90420002AF6DCB9E7F4280A
:1065300004D11A7822F001021A70B2E7F52803D1CB
:106540001A7822F00202F7E7F62803D11A7822F02F
:106550000402F1E7F72803D11A7822F00802EBE7EA
:10656000F82803D11A7822F01002E5E7FD2805D1BA
:106570000B490A7822F001020A7092E7FE2804D142
:1065800007490A7822F00202F6E7FF2889D1044978
:106590000A7822F00402EFE720A0FF1F26A0FF1FC9
:1065A00025A0FF1F00000000000000000000000008
:1065B000234B1B781B0710B53AD5224C2248FFF716
:1065C0006FFC21782148FFF76BFC2148FFF768FC3E
:1065D00094F901101F48FFF763FC1F48FFF760FCA8
:1065E00094F902101B48FFF75BFC1B48FFF758FCAF
:1065F00094F903101748FFF753FC1748FFF750FCB6
:1066000094F904101348FFF74BFC1448FFF748FCBB
:10661000134B14481978FFF743FC1348FFF740FC6D
:10662000124B10481978FFF73BFC1148FFF738FC74
:106630000448FEF77DF8FFF783FA0E4B188010BD73
:1066400011A0FF1F20A0FF1F08EA0000ABE9000017
:106650002BEA00002DEA0000FFE9000030EA00000C
:1066600026A0FF1F33EA000036EA000025A0FF1F26
:1066700038EA00001EA0FF1F00000000000000001C
:1066800038B5434B1888FFF773FA42490A78A2B12C
:10669000414B1B78834276DC404C94F9013093B92E
:1066A00094F9020000286BD194F90300002867D107
:1066B00094F90400002863D138BD394B1B7803EBF3
:1066C00083035B00E6E7FF2A01D001320A70002B4A
:1066D00002DDFFF7F5FD607094F90130002B03DA5D
:1066E000FFF7EEFD4042607094F90230002B02DDAE
:1066F000FFF7E6FDA07094F90230002B03DAFFF7F4
:10670000DFFD4042A07094F90100B8B194F9025045
:10671000A5B1FBF737FF1CA3D3E90023FBF798FFD4
:10672000FCF736FA60702846FBF72CFF16A3D3E976
:106730000023FBF78DFFFCF72BFAA07094F90330D0
:10674000002B02DDFFF7FCFDE07094F90330002B15
:1067500003DAFFF7F5FD4042E07094F90430002BB6
:1067600002DDFFF7EDFD207194F90430002B03DA10
:10677000FFF7E6FD40422071BDE83840FFF718BF43
:10678000FF2AA2D1B0E738BD666666666666E63F58
:106790001EA0FF1F26A0FF1FAD88FF1F20A0FF1F08
:1067A000AC88FF1F00000000000000000000000097
:1067B000044A002313601371034A1370034A1370D1
:1067C000704700BF20A0FF1F26A0FF1F25A0FF1FAE
:1067D00010B50E4C2288013212F0FF0F228002D138
:1067E0000220FCF7BDFF6378094922789B08CB5C47
:1067F0009A4202D10020FCF7B3FF064A136843F027
:1068000080031360BDE8104001F08ABA28A0FF1F82
:106810003BEA00000000044000000000000000000F
:106820000F4941F2380210B58B580E4C43F001036A
:106830008B5000232360A3600B4B5A7842F0010277
:106840005A701A7842F002021A70302363600221F3
:10685000552002F0B5F8236843F04003236010BDD3
:1068600000700440000004400040064000000000AA
:10687000024A136843F001031360704700000440AC
:10688000024A136823F001031360704700000440BC
:10689000032913D005D801292DD002290CD00020BE
:1068A0007047212910D02229F9D1042BF7D8DFE82D
:1068B00003F0261A1C1E200012487047032AEED847
:1068C000114800EBC2007047042BEED8DFE803F05C
:1068D0001503050709000D4870470D4870470D481E
:1068E00070470D4870470D4870470D4870470D4878
:1068F00070470D4870470D4870470D4870470D4868
:10690000704700BF2CEB00007CED000054EC000051
:10691000A0EA0000ECEA0000DCEC0000B0EC0000B3
:10692000C0EA000024EB000020ED000028ED00008C
:10693000E0EB000028EC0000000000000000000078
:106940007047000000000000000000000000000090
:106950002DE9F0411F46C36804460D4616460BB1AB
:1069600000F08EFC3B46324629462046BDE8F04109
:1069700000F066BC00000000000000000000000005
:1069800038B590F8D43003F07F02212A044640F055
:106990009B8013F0800351D0002B00F0958090F87D
:1069A000D530022B43D0032B34D0012B40F08C8008
:1069B00090F8D830042B75D8DFE803F003081012E4
:1069C00003004F4BC4F8C830102303E04D4BC0F810
:1069D000C8300523C4F8CC30002368E04A4BF1E707
:1069E00090F8D700012801D0002038BD94F8D630A7
:1069F000022B06D0032BF7D1444AC4F8C8201370E9
:106A000004E0424AC4F8C82013700323C4F8CC3011
:106A1000002309E0B0F8D830002B55D13C4AC0F82B
:106A2000C8200120C4F8CC00C4F8D03038BD394BA0
:106A3000C4F8C8300120C4F8CC00E9E790F8D5309C
:106A40000A2B38D00B2B08D0092B3DD190F8D83029
:106A50000BB1042B38D1304BEAE7B0F8D8300BBB80
:106A600090F8D6502A4A002D14BF0123002313703A
:106A70002A4A137016D1274B1A789AB1202282F332
:106A8000118827491B78274A2748594301F2E731E3
:106A90004FF47A73B1FBF3F123468900FFF758FFF7
:106AA00085F311880023C4F8C830C4F8CC30C4F88A
:106AB000D030012038BD1949164B0D7890F8D720F9
:106AC0001A70002DD9D0EDE7B4F8D42040F28163DC
:106AD0009A4289D194F8D920616894F8D8304D68E9
:106AE00094F8D71043EA0223204694F8D620A8470A
:106AF00000283FF479AF4368C4F8C830036869E7F9
:106B00001EA1FF1F44A1FF1F88A0FF1FECA0FF1FB5
:106B1000B288FF1F04A1FF1F1CA1FF1FA488FF1F35
:106B2000A0860100C16B000008A1FF1F000000004B
:106B300013B52023044683F311880F4A034641F21C
:106B400088310E48FFF704FFA3695B691B6813B126
:106B50000B4801F04DF901A9094801F039F9024645
:106B600020B110230321204601F0B2FC002383F35F
:106B7000118802B010BD00BFC16C000074A0FF1FDF
:106B80002CA0FF1F0000000000000000000000001B
:106B900013B5046B2378042B0DD123891B070AD46A
:106BA00001A9064801F014F9024620B1102303217F
:106BB000204601F08DFC02B010BD00BF2CA0FF1FCD
:106BC00038B50546202383F311880378042B03D0BE
:106BD000002383F3118838BD0F4B1B78002BF7D1AE
:106BE0000E4C2278002AF3D003899B0704D4082393
:106BF0000B4A012101F06CFC23780A490A4A0B4830
:106C0000594301F2E7314FF47A73B1FBF3F12B46AC
:106C10008900FFF79DFEDBE7A488FF1F04A1FF1F8B
:106C20001EA1FF1FA0860100C16B000008A1FF1F6D
:106C3000032938B504460D4622D0042924D0022960
:106C40002CD1202383F31188154A012101F008FC7F
:106C500029462046134A01F003FC2046124A03212C
:106C600001F0FEFB2046114A042101F0F9FB104A15
:106C70000521204601F0F4FB002383F3118838BD81
:106C8000BDE83840FFF7F4BDFEF73AFFFFF7F8FD27
:106C9000FDF716FDBDE83840FCF762BD38BD00BF0A
:106CA000BCEB000030EC00007CEA0000C8EA000009
:106CB000B8EC000000000000000000000000000030
:106CC00037B52023044683F311880378042B0BD0B7
:106CD0002346144A144841F28831FFF739FE002355
:106CE00083F3118803B030BD038913F00805EFD199
:106CF0000E4801F0DDF80028EAD001A90B4801F0A8
:106D000067F80199024601442B46881A0F2805D9D5
:106D100010230321204601F0DBFBD9E701F8013BFA
:106D2000F3E700BFC16C000074A0FF1F2CA0FF1F81
:106D3000704700000000000000000000000000009C
:106D4000704700000000000000000000000000008C
:106D5000704700000000000000000000000000007C
:106D6000704700000000000000000000000000006C
:106D700037B541F23403164AD3585B0348BF02F5D6
:106D80002C32054648BF92F80831124844BF03F040
:106D9000EF0382F8083100F073FC28460E4901F039
:106DA00047FB0E4A0E4992F808310E4843F0100393
:106DB00082F808310C4B0024DC600C4B00930195E9
:106DC0000423102200F0ECFF094BDC6003B030BD5F
:106DD00000700440F04902009CED000000200740D4
:106DE00088A0FF1F2CA0FF1F08A1FF1F916B0000B0
:106DF00074A0FF1F00000000000000000000000061
:106E000010B5094C94F8943043F0040384F894309E
:106E100040F2DC5000F034FC94F8943003F0FB03B3
:106E200084F8943010BD00BF00200740000000002F
:106E3000014B1878704700BF1CA1FF1F0000000025
:106E400010B52022044682F311881D4B19780429BD
:106E50004FF0000102D081F3118810BD81F3118839
:106E600018490978E9B182F311881A89910604D585
:106E70001B6A58690C3000F02BFC102322460521B8
:106E80000F4801F025FB002383F311880E4B2246A7
:106E900004F1100152F8040B43F8040B8A42F9D1B3
:106EA00010BD82F311881A89920704D51B695869AD
:106EB0000C3000F00DFC082322460121E0E700BF62
:106EC00048A6FF1FA488FF1F1EA1FF1F000000008F
:106ED00010B50246202383F311880948017804295C
:106EE0004FF0000402D084F3118810BD84F31188A0
:106EF00083F311880523022101F0EAFAF3E700BFCA
:106F000048A6FF1F00000000000000000000000075
:106F100007B50346202282F311880A480178042924
:106F200005D0002383F3118803B05DF804FB02222F
:106F30008DF80420ADF8053001AA032301F0C8FA4A
:106F4000EFE700BF48A6FF1F0000000000000000A0
:106F500007B52023024683F31188094801780429E4
:106F600005D0002383F3118803B05DF804FB0323ED
:106F7000ADF8052001AA8DF8043001F0A9FAF0E778
:106F800048A6FF1F000000000000000000000000F5
:106F900008B50146202383F31188094B1B78042B85
:106FA0004FF0000303D083F31188184608BD83F324
:106FB00011880A22034800F05BFF40B208BD00BF01
:106FC00048A6FF1F2CA0FF1F0000000000000000CB
:106FD0000846FFF7DDBF00000000000000000000D1
:106FE00070B500F0C5FE00F0ABF82B482A4DFFF756
:106FF000BFFE2A490020FEF743FFFDF791FA03F098
:107000002FF92C462B78042B33D0FDF741FB48B3E6
:10701000FDF746FB054641F2883000F031FB204881
:107020001D4EFEF73DFFFDF7ABFB2846FDF740FB8D
:10703000FFF7F6FB1B481C4DFEF732FF2378052BAC
:107040000DD12846FEF72CFF03F092F92378052B8B
:1070500011D0FEF7A5FCFFF7ABFA03F091F9FDF7AD
:10706000C7FBEBE7FDF7BCFA41F2883000F008FB04
:10707000C8E70E4DCFE7FDF7B3FAFEF711FDB4F800
:10708000DC309B07E2D5FEF723FD0028DED030463A
:10709000FFF7B6FEDAE700BF48A6FF1FD16F00007A
:1070A000ACED0000BDED0000CEED0000CC88FF1F70
:1070B0007047000000000000000000000000000019
:1070C0007047000000000000000000000000000009
:1070D000FEE70000000000000000000000000000CB
:1070E0000C4B70B503F18000002493E826000439AE
:1070F000AA4206D3D9688A4208D310338342F4D314
:1071000070BD51F8046F42F8046BF1E742F8044B8C
:10711000F1E700BFD4ED0000000000000000000017
:10712000FEE700000000000000000000000000007A
:10713000FEE700000000000000000000000000006A
:1071400010B51A4C00F0B4F800F06AF800F0D0FC6A
:1071500000F006FD80221649204600F0E1F90123E7
:1071600080F82030134B144AD96844F8180C21F4E5
:10717000E0610904090C0A4300241049C461DA6083
:10718000CA6842F08072CA600D490A6842F0010282
:107190000A601022DA77202283F8222084F31188F3
:1071A00062B60848BDE8104000F002BA68A2FF1FAE
:1071B00078EE000000ED00E00003FA05F0ED00E0DD
:1071C000001000E054EE000000000000000000008D
:1071D000F8B5114CA26992F8233013B1013B82F843
:1071E0002330A36AE2690D4D0133AA42A36206D09F
:1071F0009368013B93602026E3699A6802B1F8BD69
:107200001968DF68DA604D60E16182F311881869FE
:10721000B84786F31188EFE738A2FF1F54A2FF1F7B
:10722000054B03F11C02DA611A624FF0FF325A6219
:1072300000229A62704700BF38A2FF1F00000000C2
:1072400010B5C2600A4A0361D3699C68A1420CD898
:107250005C68036044602060586081609868411AEF
:1072600099604FF0FF33536210BD091B1B68ECE7B8
:1072700038A2FF1F00000000000000000000000016
:10728000036881689A680A449A60426813600368D8
:107290005A600023C360024B4FF0FF325A627047BE
:1072A00038A2FF1F000000000000000000000000E6
:1072B000034B00221B605B609A601B615B6170473F
:1072C00038A2FF1F000000000000000000000000C6
:1072D000002380F820308268054B1B689968914232
:1072E000FBD25A680360426010605860704700BF6C
:1072F00038A2FF1F00000000000000000000000096
:1073000008B5202383F3118890F820200023072A52
:1073100007D8DFE802F00C060604130F0613426AD2
:1073200013604FF0FF334362FFF7D2FF002383F374
:10733000118808BD426A93680133936090E80C009D
:107340001A6002685360ECE70000000000000000D3
:10735000002380F820308268054B1B6899689142B1
:10736000FBD85A680360426010605860704700BFE5
:1073700038A2FF1F00000000000000000000000015
:10738000084B9969142281F82000186881F823209D
:1073900002681A6053609861012380F82030FAF780
:1073A00087BF00BF38A2FF1F0000000000000000E0
:1073B00030B54B1C87B005460A4C10D0A3690A4A69
:1073C00001A8FFF73DFF2846FFF7DAFF049B13B142
:1073D00001A8FFF755FFA369586A07B030BDFFF752
:1073E000CFFFF8E738A2FF1F017300000000000084
:1073F00038B50C4D4162AB6981689A689142044688
:1074000003D8BDE83840FFF763BF1846FFF760FFB9
:107410000123AC6184F8203001462046BDE83840A5
:10742000FAF746BF38A2FF1F00000000000000006E
:10743000084B1A6890689A69936892F8232022B1E1
:10744000984294BF002001207047984234BF00202A
:107450000120704738A2FF1F00000000000000005C
:1074600010B50A4C2368A0691A6822605460012292
:10747000A36183F82020142380F82330FFF728FF2E
:107480000146A069BDE81040FAF712BF38A2FF1FFD
:1074900010B5094C2368A0691A6822605460012263
:1074A00083F82020A361FFF753FF0146A069BDE8E0
:1074B0001040FAF7FDBE00BF38A2FF1F0000000019
:1074C000044B1A689B6992689B689A4201D9FFF73E
:1074D000DFBF704738A2FF1F00000000000000005F
:1074E00010B50D4C2268A069116821604C60012123
:1074F000A26182F8201092F8232052B9FFF7E8FE2B
:10750000142380F823300146A069BDE81040FAF743
:10751000CFBEFFF71DFFF6E738A2FF1F00000000F7
:107520008260C263012280F822200D4A816130B559
:1075300051690261022480F8204014250024416131
:1075400080F8214080F823508463446308615061CF
:1075500000F12802826200F12C02C262026330BD97
:1075600038A2FF1F00000000000000000000000023
:107570008368426843F82C2CA3F16C0243F83C2C3E
:10758000026943F86C2C426943F8682C044A43F8BA
:107590004C2C0168C268A3F14800FFF7C1BF00BFCF
:1075A000C1220000000000000000000000000000F8
:1075B00010B5202383F31188FFF7DAFF002104467A
:1075C000FFF716FF002383F31188204610BD00004B
:1075D00010B50446202080F3118848396018A0F1C6
:1075E000240140F8243C029B40F8203C084B40F822
:1075F000043CC461C1600749FFF792FF00210446C3
:10760000FFF7F6FE002383F31188204610BD00BF6C
:10761000C122000071EE0000000000000000000028
:1076200038B50F4B9C69606204F12805A06AA84236
:1076300010D194F8223043B994F821309B0704D13B
:10764000636922691A61226953610F20BDE83840DD
:10765000FFF796BE0368A362FFF73AFEE6E700BFB6
:1076600038A2FF1F00000000000000000000000022
:10767000202383F31188FFF7D3BF00000000000030
:1076800008B50146202383F311880820FFF790FEF8
:10769000002383F3118808BD0000000000000000F3
:1076A00008B5202383F31188064B1A689B699268FA
:1076B0009B689A4201D3FFF7D3FE002383F311881E
:1076C00008BD00BF38A2FF1F00000000000000003E
:1076D00010B5054CA369036058620320FFF750FE04
:1076E000A369586A10BD00BF38A2FF1F0000000048
:1076F000054B9B6921B1036058620320FFF758BE18
:107700004FF0FF30704700BF38A2FF1F000000009D
:1077100003682BB10022026059621846FFF7D8BDFA
:1077200070470000000000000000000000000000A2
:1077300049B1064B42689B6918605A601360436008
:107740000420FFF735BE4FF0FF30704738A2FF1F0F
:107750000368984206D01A68026050605962184661
:10776000FFF7B6BD704700000000000000000000F9
:107770000060406081607047000000000000000071
:107780008368013B002B10B583600DDA074CA369B9
:107790005862426818605A60136043600520FFF722
:1077A000EFFDA369586A10BD002010BD38A2FF1F6D
:1077B00008B5202383F31188FFF7E2FF002383F34A
:1077C000118808BD0000000000000000000000005B
:1077D00083685A1E002A10B4826011DA21B98360CE
:1077E0004FF0FF3010BC7047064B9B6958624268EF
:1077F00018605A6010BC136043600520FFF7D8BDC5
:107800000020EFE738A2FF1F00000000000000008A
:1078100008B5202383F31188FFF7DAFF002383F3F1
:10782000118808BD000000000000000000000000FA
:1078300082680132002A0346826007DC0068026821
:107840001A60536000234362FFF742BD7047000097
:1078500010B50B461B68994205D15A680360426017
:107860001060586010BD9C6882689442F2D2F4E7C0
:10787000002300604060836070470000000000004B
:1078800070B51E4B84689D6906467CB9AB6B8560FC
:10789000C360A86370BD94E80C001A60226853604E
:1078A000616A2046FFF7D4FF636A9C68AB68A268F0
:1078B0009A4219D2A36094F82030062BEBD0072B04
:1078C00009D08BB994E80C001A60226820465360F6
:1078D000FFF7FEFC08E094E80C001A602268536091
:1078E000616A2046FFF7B4FF28463146FFF7B0FF34
:1078F0006E620620BDE87040FFF742BD38A2FF1F50
:1079000008B5202383F31188FFF7BAFF002383F320
:10791000118808BD00000000000000000000000009
:10792000144A38B591690346202282F31188C2684F
:1079300000688A6398421AD0CC6B7AB902688C606E
:107940001A605360826B9860DA608363FFF7C0FC53
:10795000FFF7B6FD002383F3118838BD1568AA42EE
:1079600003D0AD68AC4238BF2C46D268E5E70023AF
:107970008360EFE738A2FF1F000000000000000056
:1079800010B5202484F3118804680C600160054858
:1079900080698A6000224860CA600B6182F31188A6
:1079A00010BD00BF38A2FF1F000000000000000053
:1079B0000246202383F311880023C068D36083F339
:1079C0001188704700000000000000000000000067
:1079D000436B194390F8203041630A2B03D1436A6B
:1079E000194205D170470B2B06D1436A8B4303D153
:1079F00000234362FFF76CBC7047000000000000EA
:107A000070B5046805460E46AC4200D170BDE3680F
:107A10003343E36016B12269134203D0A168606862
:107A2000FFF7D6FF2468EFE7000000000000000029
:107A300008B5202383F31188FFF7E2FFFFF740FD2D
:107A4000002383F3118808BD00000000000000003F
:107A50000F4A70B595690646202282F311886C6B37
:107A600004400CD119B984F31188204670BD6862B6
:107A70000A20FFF79DFC0028F5DB6C6B34406B6B34
:107A800023EA04036B63002383F31188EDE700BF4F
:107A900038A2FF1F000000000000000000000000EE
:107AA00070B5164686B008220D461C4600F068F8F0
:107AB000D8B10A9B0190049328440B9B0593009630
:107AC00002900394202383F311886846FFF750FD4A
:107AD000012380F8213000210446FFF789FC0023B0
