:102000000084FF1F81220000917100009171000087
:1020100091710000917100009171000091710000B8
:10202000917100009171000091710000917D00009C
:10203000917100009171000091710000B195000054
:1020400021910000917100009171000091710000D8
:102050009171000091710000917100009171000078
:102060009171000091710000917100009171000068
:102070009171000091710000917100009171000058
:102080009171000091710000917100009171000048
:102090009171000091710000917100009171000038
:1020A0000194000091710000917100009171000095
:1020B0009171000091710000917100009171000018
:1020C0009171000091710000917100009171000008
:1020D00091710000917100009171000091710000F8
:1020E00091710000917100009171000091710000E8
:1020F00091710000E18E0000218F0000018F00002F
:10210000418F0000917100009171000091710000F9
:1021100091710000917100009171000091710000B7
:1021200091710000917100009171000091710000A7
:102130009171000091710000917100009171000097
:102140009171000091710000917100009171000087
:102150009171000091710000917100009171000077
:1021600091710000F19900009171000091710000DF
:102170009171000091710000917100009171000057
:102180009171000091710000917100009171000047
:102190009171000051680000917100009171000080
:1021A0009171000091710000917100009171000027
:1021B0009171000091710000917100009171000017
:0C21C00021E200003D220000152200007A
:1021D000044B05481B1A062B02D9044B03B11847C0
:1021E000704700BFAF90FF1FAC90FF1F00000000C2
:1021F00005490648091A891001EBD171491002D02E
:10220000034B03B118477047AC90FF1FAC90FF1F02
:102210000000000010B5064C237843B9FFF7D8FF43
:10222000044B13B10448AFF300800123237010BDA9
:102230000092FF1F00000000E002010008B5084BFB
:102240001BB108480849AFF300800848036813B978
:10225000BDE80840CCE7064B002BF9D09847F7E7DC
:1022600000000000E00201000492FF1FAC90FF1F7D
:10227000000000000000000000000000000000005E
:1022800072B6264880F3098825484EF60851CEF2EA
:1022900000010860022080F31488BFF36F8F04F000
:1022A0003FFF07F02DFD4FF055301E491E4A914269
:1022B0003CBF41F8040BFAE71C49184A91423CBF65
:1022C00041F8040BFAE71A491A4A1B4B9A423EBFDF
:1022D00051F8040B42F8040BF8E700201749184A9C
:1022E00091423CBF41F8040BFAE704F031FF04F0DF
:1022F0001FFF144C144DAC4203DA54F8041B8847FA
:10230000F9E704F0A5FE114C114DAC4203DA54F884
:10231000041B8847F9E704F013BF00000086FF1F85
:10232000002000000080FF1F0084FF1F0084FF1FAB
:10233000E00201000086FF1FAC90FF1F0092FF1F0C
:102340002CB5FF1FC0210000C8210000C8210000DB
:10235000CC21000000000000000000000000000090
:102360002DE9F04FC1F80CD0C3689D46BDE8F08F51
:10237000002383F311882846A047002005F0B8F910
:1023800005F0EEF800DFFEE70000000000000000AE
:1023900081F0004102E000BF83F0004330B54FEA16
:1023A00041044FEA430594EA050F08BF90EA020F83
:1023B0001FBF54EA000C55EA020C7FEA645C7FEA16
:1023C000655C00F0E2804FEA5454D4EB5555B8BF39
:1023D0006D420CDD2C4480EA020281EA030382EAAA
:1023E000000083EA010180EA020281EA0303362D3C
:1023F00088BF30BD11F0004F4FEA01314FF4801C0F
:102400004CEA113102D0404261EB410113F0004F20
:102410004FEA03334CEA133302D0524263EB4303D7
:1024200094EA050F00F0A780A4F10104D5F1200E75
:102430000DDB02FA0EFC22FA05F2801841F10001D0
:1024400003FA0EF2801843FA05F359410EE0A5F1A4
:1024500020050EF1200E012A03FA0EFC28BF4CF0D5
:10246000020C43FA05F3C01851EBE37101F000458B
:1024700007D54FF0000EDCF1000C7EEB00006EEB98
:102480000101B1F5801F1BD3B1F5001F0CD3490822
:102490005FEA30004FEA3C0C04F101044FEA445279
:1024A00012F5800F80F09A80BCF1004F08BF5FEA00
:1024B000500C50F1000041EB045141EA050130BDE0
:1024C0005FEA4C0C404141EB010111F4801FA4F183
:1024D0000104E9D191F0000F04BF01460020B1FAD8
:1024E00081F308BF2033A3F10B03B3F120020CDA10
:1024F0000C3208DD02F1140CC2F10C0201FA0CF0EE
:1025000021FA02F10CE002F11402D8BFC2F1200C52
:1025100001FA02F120FA0CFCDCBF41EA0C01904008
:10252000E41AA2BF01EB0451294330BD6FEA040451
:102530001F3C1CDA0C340EDC04F11404C4F120023C
:1025400020FA04F001FA02F340EA030021FA04F34E
:1025500045EA030130BDC4F10C04C4F1200220FAA5
:1025600002F001FA04F340EA0300294630BD21FAE3
:1025700004F0294630BD94F0000F83F4801306BFA9
:1025800081F480110134013D4EE77FEA645C18BF9D
:102590007FEA655C29D094EA050F08BF90EA020F34
:1025A00005D054EA000C04BF1946104630BD91EA2C
:1025B000030F1EBF0021002030BD5FEA545C05D12F
:1025C0004000494128BF41F0004130BD14F580046E
:1025D0003CBF01F5801130BD01F0004545F0FE41E2
:1025E00041F470014FF0000030BD7FEA645C1ABF17
:1025F000194610467FEA655C1CBF0B46024650EA4E
:10260000013406BF52EA033591EA030F41F4002179
:1026100030BD00BF90F0000F04BF0021704730B5FF
:102620004FF4806404F132044FF000054FF00001D4
:1026300050E700BF90F0000F04BF0021704730B595
:102640004FF4806404F1320410F0004548BF40426A
:102650004FF000013EE700BF42004FEAE2014FEABF
:1026600031014FEA02701FBF12F07F4393F07F4F9A
:1026700081F06051704792F0000F14BF93F07F4FCC
:10268000704730B54FF4607401F0004521F000410F
:1026900020E700BF50EA010208BF704730B54FF095
:1026A00000050AE050EA010208BF704730B511F09A
:1026B000004502D5404261EB41014FF4806404F1D2
:1026C00032045FEA915C3FF4DCAE4FF003025FEA54
:1026D000DC0C18BF03325FEADC0C18BF033202EBDC
:1026E000DC02C2F1200300FA03FC20FA02F001FA36
:1026F00003FE40EA0E0021FA02F11444C1E600BFD5
:1027000070B54FF0FF0C4CF4E06C1CEA11541DBF87
:102710001CEA135594EA0C0F95EA0C0F00F0DEF852
:102720002C4481EA030621EA4C5123EA4C5350EA37
:10273000013518BF52EA033541F4801143F4801388
:1027400038D0A0FB02CE4FF00005E1FB02E506F019
:102750000042E0FB03E54FF00006E1FB03569CF06E
:10276000000F18BF4EF0010EA4F1FF04B6F5007F74
:1027700064F5407404D25FEA4E0E6D4146EB0606E6
:1027800042EAC62141EA55514FEAC52040EA5E506F
:102790004FEACE2EB4F1FD0C88BFBCF5E06F1ED819
:1027A000BEF1004F08BF5FEA500E50F1000041EB50
:1027B000045170BD06F0004646EA010140EA0200FD
:1027C00081EA0301B4EB5C04C2BFD4EB0C0541EA1F
:1027D000045170BD41F480114FF0000E013C00F334
:1027E000AB8014F1360FDEBF002001F0004170BD58
:1027F000C4F10004203C35DA0C341BDC04F1140471
:10280000C4F1200500FA05F320FA04F001FA05F2FC
:1028100040EA020001F0004221F0004110EBD370C9
:1028200021FA04F642EB06015EEA430E08BF20EAF5
:10283000D37070BDC4F10C04C4F1200500FA04F398
:1028400020FA05F001FA04F240EA020001F000412A
:1028500010EBD37041F100015EEA430E08BF20EA9D
:10286000D37070BDC4F1200500FA05F24EEA020EE5
:1028700020FA04F301FA05F243EA020321FA04F014
:1028800001F0004121FA04F220EA020000EBD370CB
:102890005EEA430E08BF20EAD37070BD94F0000FCB
:1028A0000FD101F00046400041EB010111F4801FFF
:1028B00008BF013CF7D041EA060195F0000F18BFB0
:1028C000704703F00046520043EB030313F4801FEC
:1028D00008BF013DF7D043EA0603704794EA0C0FA6
:1028E0000CEA135518BF95EA0C0F0CD050EA4106BC
:1028F00018BF52EA4306D1D181EA030101F0004139
:102900004FF0000070BD50EA410606BF1046194660
:1029100052EA430619D094EA0C0F02D150EA01366C
:1029200013D195EA0C0F05D152EA03361CBF1046AD
:1029300019460AD181EA030101F0004141F0FE414C
:1029400041F470014FF0000070BD41F0FE4141F4D0
:10295000780170BD70B54FF0FF0C4CF4E06C1CEAD0
:1029600011541DBF1CEA135594EA0C0F95EA0C0F85
:1029700000F0A7F8A4EB050481EA030E52EA033540
:102980004FEA013100F088804FEA03334FF0805561
:1029900045EA131343EA12634FEA022245EA11158E
:1029A00045EA10654FEA00260EF000419D4208BF3F
:1029B000964244F1FD0404F5407402D25B084FEAEC
:1029C0003202B61A65EB03055B084FEA32024FF498
:1029D00080104FF4002CB6EB020E75EB030E22BFF5
:1029E000B61A754640EA0C005B084FEA3202B6EBB5
:1029F000020E75EB030E22BFB61A754640EA5C0064
:102A00005B084FEA3202B6EB020E75EB030E22BFF3
:102A1000B61A754640EA9C005B084FEA3202B6EBF4
:102A2000020E75EB030E22BFB61A754640EADC00B3
:102A300055EA060E18D04FEA051545EA16754FEA15
:102A400006164FEAC30343EA52734FEAC2025FEA33
:102A50001C1CC0D111F4801F0BD141EA00014FF0C2
:102A600000004FF0004CB6E711F4801F04BF014393
:102A70000020B4F1FD0C88BFBCF5E06F3FF6AFAEAF
:102A8000B5EB030C04BFB6EB020C5FEA500C50F13F
:102A9000000041EB045170BD0EF0004E4EEA1131C2
:102AA00014EB5C04C2BFD4EB0C0541EA045170BDC9
:102AB00041F480114FF0000E013C90E645EA060E0D
:102AC0008DE60CEA135594EA0C0F08BF95EA0C0F3B
:102AD0003FF43BAF94EA0C0F0AD150EA01347FF483
:102AE00034AF95EA0C0F7FF425AF104619462CE75A
:102AF00095EA0C0F06D152EA03353FF4FDAE1046BD
:102B0000194622E750EA410618BF52EA43067FF40D
:102B1000C5AE50EA41047FF40DAF52EA43057FF49D
:102B2000EBAE12E700000000000000000000000013
:102B30004FF0FF3C06E000BF4FF0010C02E000BF89
:102B40004FF0010C4DF804CD4FEA410C7FEA6C5C6C
:102B50004FEA430C18BF7FEA6C5C1BD001B050EA0F
:102B6000410C0CBF52EA430C91EA030F02BF90EAFA
:102B7000020F0020704710F1000F91EA030F58BFB9
:102B8000994208BF90422CBFD8176FEAE37040F01B
:102B9000010070474FEA410C7FEA6C5C02D150EAB9
:102BA000013C07D14FEA430C7FEA6C5CD6D152EA74
:102BB000033CD3D05DF8040B704700BF8446104639
:102BC00062468C461946634600E000BF01B5FFF738
:102BD000B7FF002848BF10F1000F01BD4DF808ED08
:102BE000FFF7F4FF0CBF012000205DF808FB00BFD9
:102BF0004DF808EDFFF7EAFF34BF012000205DF833
:102C000008FB00BF4DF808EDFFF7E0FF94BF01207F
:102C100000205DF808FB00BF4DF808EDFFF7CEFF80
:102C200094BF012000205DF808FB00BF4DF808EDBF
:102C3000FFF7C4FF34BF012000205DF808FB00BF90
:102C40004FEA410212F5001215D211D56FF47873D4
:102C5000B3EB625212D94FEAC12343F0004343EA77
:102C6000505311F0004F23FA02F018BF4042704752
:102C70004FF00000704750EA013005D111F00040DC
:102C800008BF6FF0004070474FF00000704700BF72
:102C90004A0011D212F5001211D20DD56FF47873DB
:102CA000B3EB62520ED44FEAC12343F0004343EA30
:102CB000505323FA02F070474FF00000704750EA7B
:102CC000013002D14FF0FF3070474FF000007047E5
:102CD0004FEA4102B2F1E04324BFB3F5001CDCF13E
:102CE000FE5C0DD901F0004C4FEAC0024CEA507076
:102CF000B2F1004F40EB830008BF20F001007047A5
:102D000011F0804F21D113F13872BCBF01F00040A7
:102D1000704741F480114FEA5252C2F11802C2F1D9
:102D2000200C10FA0CF320FA02F018BF40F001005A
:102D30004FEAC1234FEAD32303FA0CFC40EA0C000C
:102D400023FA02F34FEA4303CCE77FEA625307D149
:102D500050EA01331EBF4FF0FE4040F44000704780
:102D600001F0004040F0FE4040F40000704700BF1A
:102D700080F0004002E000BF81F0004142001FBF30
:102D80005FEA410392EA030F7FEA226C7FEA236C39
:102D90006AD04FEA1262D2EB1363C1BFD21841402E
:102DA00048404140B8BF5B42192B88BF704710F0C4
:102DB000004F40F4000020F07F4018BF404211F067
:102DC000004F41F4000121F07F4118BF494292EACF
:102DD000030F3FD0A2F1010241FA03FC10EB0C00FB
:102DE000C3F1200301FA03F100F0004302D5494288
:102DF00060EB4000B0F5000F13D3B0F1807F06D335
:102E000040084FEA310102F10102FE2A51D2B1F12C
:102E1000004F40EBC25008BF20F0010040EA030021
:102E20007047490040EB000010F4000FA2F10102CE
:102E3000EDD1B0FA80FCACF1080CB2EB0C0200FA58
:102E40000CF0AABF00EBC25052421843BCBFD040A6
:102E50001843704792F0000F81F4000106BF80F420
:102E600000000132013BB5E74FEA41037FEA226CE3
:102E700018BF7FEA236C21D092EA030F04D092F0AE
:102E8000000F08BF0846704790EA010F1CBF0020E2
:102E9000704712F07F4F04D1400028BF40F000403F
:102EA000704712F100723CBF00F50000704700F05F
:102EB000004343F0FE4040F4000070477FEA226286
:102EC00016BF08467FEA23630146420206BF5FEA57
:102ED000412390EA010F40F4800070474FF0000357
:102EE00004E000BF10F0004348BF40425FEA000C1E
:102EF00008BF704743F0964301464FF000001CE0C6
:102F000050EA010208BF70474FF000030AE000BF1B
:102F100050EA010208BF704711F0004302D5404259
:102F200061EB41015FEA010C02BF844601460020CB
:102F300043F0B64308BFA3F18053A3F50003BCFAE6
:102F40008CF2083AA3EBC25310DB01FA02FC634493
:102F500000FA02FCC2F12002BCF1004F20FA02F29A
:102F600043EB020008BF20F00100704702F120028D
:102F700001FA02FCC2F1200250EA4C0021FA02F2EE
:102F800043EB020008BF20EADC707047000000003D
:102F90004FF0FF0C1CEAD0521EBF1CEAD15392EA3C
:102FA0000C0F93EA0C0F6FD01A4480EA010C400218
:102FB00018BF5FEA41211ED04FF0006343EA501072
:102FC00043EA5111A0FB01310CF00040B1F5000FB4
:102FD0003EBF490041EAD3715B0040EA010062F163
:102FE0007F02FD2A1DD8B3F1004F40EBC25008BF4D
:102FF00020F00100704790F0000F0CF0004C08BF6B
:1030000049024CEA502040EA51207F3AC2BFD2F137
:10301000FF0340EAC250704740F400004FF0000345
:10302000013A5DDC12F1190FDCBF00F0004070477F
:10303000C2F10002410021FA02F1C2F1200200FABD
:1030400002FC5FEA310040F1000053EA4C0308BF84
:1030500020EADC70704792F0000F00F0004C02BFD5
:10306000400010F4000F013AF9D040EA0C0093F050
:10307000000F01F0004C02BF490011F4000F013BAA
:10308000F9D041EA0C018FE70CEAD15392EA0C0F18
:1030900018BF93EA0C0F0AD030F0004C18BF31F083
:1030A000004CD8D180EA010000F00040704790F059
:1030B000000F17BF90F0004F084691F0000F91F0FD
:1030C000004F14D092EA0C0F01D142020FD193EAC3
:1030D0000C0F03D14B0218BF084608D180EA01004B
:1030E00000F0004040F0FE4040F40000704740F027
:1030F000FE4040F4400070474FF0FF0C1CEAD052F5
:103100001EBF1CEAD15392EA0C0F93EA0C0F69D050
:10311000A2EB030280EA010C49024FEA402037D0BB
:103120004FF0805343EA111143EA10130CF00040B2
:103130008B4238BF5B0042F17D024FF4000C8B42A2
:1031400024BF5B1A40EA0C00B3EB510F24BFA3EB82
:10315000510340EA5C00B3EB910F24BFA3EB910352
:1031600040EA9C00B3EBD10F24BFA3EBD10340EAAC
:10317000DC001B0118BF5FEA1C1CE0D1FD2A3FF6F2
:1031800050AF8B4240EBC25008BF20F001007047A7
:103190000CF0004C4CEA50207F32C2BFD2F1FF034A
:1031A00040EAC250704740F400004FF00003013A7B
:1031B00037E792F0000F00F0004C02BF400010F41F
:1031C000000F013AF9D040EA0C0093F0000F01F033
:1031D000004C02BF490011F4000F013BF9D041EA55
:1031E0000C0195E70CEAD15392EA0C0F08D1420288
:1031F0007FF47DAF93EA0C0F7FF470AF084676E75B
:1032000093EA0C0F04D14B023FF44CAF08466EE733
:1032100030F0004C18BF31F0004CCAD130F0004201
:103220007FF45CAF31F000437FF43CAF5FE700BF59
:103230004FF0FF3C06E000BF4FF0010C02E000BF82
:103240004FF0010C4DF804CD4FEA40024FEA410324
:103250007FEA226C18BF7FEA236C11D001B052EADA
:10326000530C18BF90EA010F58BFB2EB030088BFA0
:10327000C81738BF6FEAE17018BF40F0010070470F
:103280007FEA226C02D15FEA402C05D17FEA236CF1
:10329000E4D15FEA412CE1D05DF8040B704700BF38
:1032A000844608466146FFE70FB5FFF7C9FF0028CF
:1032B00048BF10F1000F0FBD4DF808EDFFF7F4FF08
:1032C0000CBF012000205DF808FB00BF4DF808EDA1
:1032D000FFF7EAFF34BF012000205DF808FB00BFC4
:1032E0004DF808EDFFF7E0FF94BF012000205DF8E6
:1032F00008FB00BF4DF808EDFFF7D2FF94BF012097
:1033000000205DF808FB00BF4DF808EDFFF7C8FF8F
:1033100034BF012000205DF808FB00BF0000000062
:103320004FEA4002B2F1FE4F0FD34FF09E03B3EBD2
:1033300012620DD94FEA002343F0004310F0004F12
:1033400023FA02F018BF404270474FF00000704768
:1033500012F1610F01D1420205D110F0004008BF07
:103360006FF0004070474FF0000070470000000011
:1033700042000ED2B2F1FE4F0BD34FF09E03B3EBDF
:10338000126209D44FEA002343F0004323FA02F00B
:1033900070474FF00000704712F1610F01D14202F7
:1033A00002D14FF0FF3070474FF00000704700BF70
:1033B000844641EA000313F003036DD1403A41D340
:1033C00051F8043B40F8043B51F8043B40F8043BFF
:1033D00051F8043B40F8043B51F8043B40F8043BEF
:1033E00051F8043B40F8043B51F8043B40F8043BDF
:1033F00051F8043B40F8043B51F8043B40F8043BCF
:1034000051F8043B40F8043B51F8043B40F8043BBE
:1034100051F8043B40F8043B51F8043B40F8043BAE
:1034200051F8043B40F8043B51F8043B40F8043B9E
:1034300051F8043B40F8043B51F8043B40F8043B8E
:10344000403ABDD2303211D351F8043B40F8043B2E
:1034500051F8043B40F8043B51F8043B40F8043B6E
:1034600051F8043B40F8043B103AEDD20C3205D33E
:1034700051F8043B40F8043B043AF9D2043208D036
:10348000D2071CBF11F8013B00F8013B01D30B88A8
:1034900003806046704700BF082A13D38B078DD086
:1034A00010F003038AD0C3F10403D21ADB071CBF58
:1034B00011F8013B00F8013B80D331F8023B20F8C2
:1034C000023B7BE7043AD9D3013A11F8013B00F8FB
:1034D000013BF9D20B7803704B7843708B78837083
:1034E000604670470000000000000000000000007F
:1034F00038B52A4C2A4D20460121042205F058FBFC
:10350000042120460A4605F053FB204605210422EB
:1035100005F04EFB20460621042205F049FB20461B
:103520000721042205F044FB28460221062205F06B
:103530003FFB28460321062205F03AFB28461221CC
:10354000062205F035FB284613214035062205F0FA
:103550002FFB28460021062205F02AFB28460921D8
:10356000062205F025FB28460A21062205F020FB4D
:1035700028460B21062205F01BFB204600210622CF
:1035800005F016FB0021122206480AF0A1FD0648AC
:1035900000210922BDE838400AF09ABDC0F00F4072
:1035A00040F00F401F92FF1F3192FF1F00000000EC
:1035B000F8B53C4F0026751E3B4C072D05D8DFE8BB
:1035C00005F006080B0F1114171C042206E0082250
:1035D00004E04FF4802201E04FF40022334B0AE074
:1035E000012207E04FF4007204E04FF4806201E032
:1035F0004FF400622E4B5A6001E001236360022009
:1036000004F07EF82369226903F0F003C2F340025C
:1036100042EAD303072D05D8DFE805F006080B0FB3
:103620001114171C042106E0082104E04FF4802146
:1036300001E04FF400211D4A0AE0012107E04FF4A8
:10364000007104E04FF4806101E04FF40061184A1A
:10365000916001E00122A26017F8012F9A4207D081
:103660003B70144B01221A7002F09AFA124B188028
:103670000136092E9FD10F4B1A781C467AB10E4B9A
:10368000188802F0A5FA052809D900230B4A995C8D
:103690000B4A99540133092BF8D1002323700120E0
:1036A000F8BD00BF3092FF1FC0F00F4040F00F4048
:1036B00080F00F401E92FF1F1C92FF1F3192FF1FD0
:1036C0001F92FF1F0000000000000000000000002B
:1036D000014B185C704700BF1F92FF1F00000000E5
:1036E00070B50E4802F00CFC00240D48214602F093
:1036F00007FC0C4BE65C002546FA05F3DB074CBFE4
:1037000009480A48013502F0FBFB052DF4D10848B1
:10371000013402F0F5FB122CE7D170BD18E3000074
:1037200027E300001F92FF1F2DE300002FE300009E
:1037300069E9000000000000000000000000000037
:1037400010B5013101EBC101C9B20023034AC45CC9
:103750000A44D4540133092BF8D110BD1F92FF1F26
:1037600070470000000000000000000000000000A2
:10377000074B40F213225A604FF411729A6003F51E
:10378000804340F213321A604FF451725A6070470E
:103790000090044000000000000000000000000055
:1037A000154941F23C028B5843F080738B50134B08
:1037B00000224FF6FF715A6099602421D960596147
:1037C000D961082119601A619A611A6203F54723C9
:1037D00080335A6942F002025A615A6942F0040287
:1037E0005A615A690A435A61054B40F244425A6091
:1037F0009A60DA60704700BF0070044000800340A8
:1038000000B00440000000000000000000000000C4
:10381000024B186199611A62704700BF0080034033
:1038200001207047000000000000000000000000C0
:1038300001207047000000000000000000000000B0
:1038400008B5FFF7F5FF08BD00000000000000000C
:1038500037B50388ADF804300546019801F050FFF4
:103860000199C0B200F04CFA29460446FFF7E8FF80
:10387000E8B12046294600F0DBFAC0B147F2130355
:103880009C4200F2CA8047F202039C4211D2B4F576
:10389000E04F40F0AA80AC78002C00F0EA8001F004
:1038A00017FB46F2A81003F02BFF02F0A9F9002441
:1038B000DFE0AB78002B00F0A08002F0E1F808B95F
:1038C00002F0C6F802F00CF96B4B47F20202944288
:1038D000188003D11A7842F0010281E047F2030216
:1038E000944203D11A7842F0020279E047F20402CE
:1038F000944203D11A7842F0040271E047F20502C3
:10390000944203D11A7842F0080269E047F20602B5
:10391000944203D11A7842F0100261E047F20702A4
:10392000944203D11A7842F0200259E047F208028B
:10393000944203D11A7842F0400251E047F2090262
:10394000944203D11A7842F0800249E047F20A0219
:10395000944203D11A7842F00C0241E047F20B0284
:10396000944203D11A786FF3000239E047F20C0257
:10397000944203D11A786FF3410231E047F20D020D
:10398000944203D11A786FF3820229E047F20E02C3
:10399000944201D11A7821E047F20F02944203D1F8
:1039A0001A786FF304121BE047F21002944203D11D
:1039B0001A786FF3451213E047F21102944203D1D3
:1039C0001A786FF386120BE047F2120294421A78CB
:1039D00002D16FF3C71203E002F0FB026FF3C302E0
:1039E0001A70187802F084F861E747F201039C42EC
:1039F00008D0224B01221A705A702846FFF710FF98
:103A0000044636E0AC78A4B31D4802F079FA1D4AAA
:103A1000137843F00103137049E747F23B039C42DC
:103A2000164B0FD1AC781CB100241C70022012E0A0
:103A30001B782BB9262000F073FF262001F008F830
:103A4000022014E047F23C029442D2D1AC782CB16F
:103A500000245C70202001F02BF80AE05B782BB981
:103A6000272000F05DFF272000F0F2FF202001F06A
:103A70002FF8204603B030BD1CA0FF1F3A92FF1F55
:103A80009EE4000011A0FF1F0000000000000000E5
:103A900007B5C1F3072303EB83025A2303FB00207E
:103AA000ADF804108C4B50FA81F133F8110000F09E
:103AB0003FF9B0F5804F26D2B0F5405F80F0988096
:103AC000DF2811D8C0284FD2A7280AD8A5284FD25E
:103AD000012800F0FE80C0F0BC80042880F0F9804E
:103AE000B7E0BC284ED9B4E0FF2805D8F02878D23A
:103AF000E72840F2EE80ACE0B0F5005FC0F09B80BC
:103B0000C0F30B0070E0B0F5A64F10D2B0F5A44F93
:103B1000C3B280F08780B0F5A24F7DD2B0F5A04F40
:103B20006AD243F4204300F470601843D1E0B0F54A
:103B3000AA4F0ED2B0F5A84FC0B27ED282080123A0
:103B400000F0030003FA00F040EA421040F40A409B
:103B500071E0B0F5AC4F76D3A0F5C043B3F5805F0C
:103B600077D2C0F30B0071E000F10040C0383BE0B9
:103B700071D044F2820344F28302A62814BF104697
:103B80001846A6E0A82869D0A9286AD0AA286BD030
:103B9000AB286CD0AC286DD0BB286ED0BC286FD0C1
:103BA000AD2870D0B02871D0AE2872D0AF2873D0B5
:103BB000B12874D0B22875D0B32876D0B42877D085
:103BC000B52878D0B62879D0B7287AD0B8287BD055
:103BD000B9287CD0BA2844F22A6018BF4FF4884034
:103BE00077E040F4A04026E03C4B33F8100070E052
:103BF000C0B240F440406CE003F0030101228A406F
:103C000042F40C42C0F3011042EA0020C3F38103E6
:103C100040EA431398B25CE0180240F4204040F0C0
:103C2000F10056E09A08012003F00303984040EAAF
:103C3000421040F40C4080B24BE0000240F42040BF
:103C400040F0F40045E000F01F00000240F4005096
:103C50003FE000203DE044F281003AE044F2E240DF
:103C600037E044F2E94034E044F2EA4031E044F223
:103C7000B5402EE044F2B6402BE044F2B34028E0D9
:103C800044F2B44025E044F2B74022E044F2CC4094
:103C90001FE044F2CD401CE044F2835019E044F2AE
:103CA0008A5016E044F2925013E044F2945010E02F
:103CB00044F221600DE044F223600AE044F2246003
:103CC00007E044F2256004E044F2266001E044F29B
:103CD000276003B05DF804FB36E3000032E3000028
:103CE00000207047000000000000000000000000FD
:103CF000704700000000000000000000000000000D
:103D0000C1F3072303EB83025A2303FB002050FA7D
:103D100081F1034B33F8110082B002B0704700BF4D
:103D200036E300000000000000000000000000007A
:103D300082281AD00CD831285CD004D8292851D038
:103D40002A285FD07047352844D039280DD07047D5
:103D5000E32827D004D8E02810D0E22816D07047F6
:103D6000E62825D0E7282FD070472C4B1B78DA07A0
:103D700050D413F0020F18BFE0207047274B1B7878
:103D800013F0010F14BF3920E0207047234B1B783C
:103D90005B0741D5214B1B7813F0100F14BF002097
:103DA000E32070471D4B1B785907F3D5E22070477D
:103DB0001A4B1B781A072FD5184B1B7813F0100FCE
:103DC00014BF0020E7207047144B1B781B07F3D566
:103DD000E62021E0114B1B7813F0200F14BF29209F
:103DE000352070470D4B1B7813F0200F14BF352082
:103DF00029207047094B1B7813F0400F14BF2A206D
:103E000031207047054B1B7813F0400F14BF312051
:103E10002A207047E0207047704700BF1CA0FF1F9A
:103E200070470000000000000000000000000000DB
:103E30008B7870B505460BB9012425E0134E347814
:103E4000A4B947F214039842F6D1FFF7E9FF012322
:103E5000337001F0A5FE0E4B18800E4B1C700E4BFC
:103E60001C805C809C80DC801C810DE0084B1888E5
:103E700001F0AEFEC728DFD8064A0749137821F8BB
:103E80001350013313700024204670BD4A92FF1F67
:103E90004892FF1F3C92FF1F3E92FF1F0000000050
:103EA0002DE9F84307460E460025B54243D0234A84
:103EB00057F825801368591C11604446204A42F87F
:103EC000238014F8043B4BB9204600F0C9F8B8F839
:103ED000020000EB40004044383010E0012B11D1CB
:103EE0004FF00809204600F0BBF8B8F8023003EBA9
:103EF00043033433B9F101091C44F3D1204600F0E7
:103F0000AFF816E0204600F0ABF8B8F8023003EB4B
:103F1000430334331C444FF00809204600F0A0F856
:103F2000B8F8023003EB43030433B9F101091C4430
:103F3000F3D10135B9E7BDE8F88300BF8C92FF1FCC
:103F40004C92FF1F00000000000000000000000075
:103F500070B513460D468A181A4912F8012C0968E3
:103F60008A422ED2184951F8224066885A1E96423B
:103F700027D122780F332AB903EB4301631803F1E9
:103F8000080411E0022A05BF03EB4303E4181822DA
:103F9000083405BF00F1FF302C3B02FB034303FB59
:103FA000004418BF03F124042146304600F080F895
:103FB00029463246FFF7FCF92046BDE8704000F084
:103FC0007FB870BD8C92FF1F4C92FF1F0000000055
:103FD000F8B500271E4B1B689F4238D21D4B53F883
:103FE0002740214611F8043B13F0FD0F13D16088E0
:103FF000103080B200F03CF8014630B36388C754FB
:1040000062882078013200280CBFFF20002092B285
:1040100000F0F6F819E00E460125608810303146B0
:1040200080B200F025F8014638B16388C754628831
:104030000132E8B292B200F0E3F86388013503EB95
:1040400043033433092D1E44E7D10137C2E7F8BDDD
:104050008C92FF1F4C92FF1F000000000000000028
:1040600021230370704700000000000000000000E2
:1040700030B5202383F311880C78C4F380129AB1F1
:1040800004F0CC03C4F3011543EA050204F0030372
:1040900042EA031323F040030B70002383F31188DB
:1040A00005FB0010043030BD82F31188104630BD8E
:1040B0000B78C3F3810303FB00100430704700004A
:1040C000202383F31188017821F03002C1F38103AA
:1040D00042EA031323F00C02C1F3011342EA830303
:1040E00043F040030370002383F3118870470000FE
:1040F000042AF7B506461DD9043A8D180C462868DF
:1041000001904FF0FF33AC4209D014F8010B0A4F75
:104110005840C0B257F8200080EA1323F3E7019813
:10412000DB43984206D1304692B203B0BDE8F0407E
:1041300000F036B803B0F0BDB0E4000000000000AD
:10414000F7B54FF0FF33054614460E4614F1FF3421
:1041500009D316F8010B0B4F5840C0B257F8200096
:1041600080EA1323F2E702A8DB4340F8043D00682D
:1041700088500432284692B203B0BDE8F04000F007
:10418000C7B800BFB0E4000000000000000000005D
:10419000014B1870704700BF9092FF1F0000000095
:1041A000F8B5144D2F780C46164657B101281FD18B
:1041B0001444013A14F8010C92B2BDE8F840FFF73C
:1041C000C7BE551E60B94B5DDB0702D5AAB2FFF72B
:1041D000BFFE635D5B08635501202146324603E064
:1041E0004B5D01334B553846BDE8F840FFF7A8BF9B
:1041F000F8BD00BF9092FF1F00000000000000000B
:1042000030B50546094C28B924786CB901248C5482
:10421000224404E0207838B18D540120013292B25A
:10422000BDE83040FFF78CBF30BD00BF9092FF1F4C
:1042300073B50D4602A9144601F8013D0122064658
:1042400000F02EF9AC4205D9621B3046294692B2E5
:1042500000F026F902B070BD000000000000000070
:10426000054B00221A805A801A71A3F80624A3F87D
:10427000082483F80A2470479292FF1F0000000070
:1042800070B540F20642204D02FB00F42B192E5B64
:104290003EB92953A1F1FF046142614119715E8069
:1042A00070BD013EB6B22E5351B936B95A884AB3E1
:1042B000591DBDE87040FFF71BBF2953598014E01A
:1042C0005A88B2F5806F08D1A1F1FF00295341420D
:1042D0004141002219715A8070BD76B9187929536D
:1042E00028B1A1F1FF0251425141197170BD511C19
:1042F00022442A445980507170BD501C22442A44E3
:104300005880517170BD00BF9292FF1F00000000E5
:10431000F7B5002305460C468DF8073032B38E18EA
:1043200021460123B44216D2FF2B04D1284622464F
:10433000FFF77EFFF4E7274617F8012B3AB9DBB207
:1043400028462246FFF774FF3946012301E0013376
:104350009BB23C46E6E728462246DBB2FFF768FF01
:1043600028460DF10701012200F09AF803B0F0BDD4
:104370000020704700000000000000000000000066
:104380007047000000000000000000000000000076
:104390007047000000000000000000000000000066
:1043A0007047000000000000000000000000000056
:1043B0007047000000000000000000000000000046
:1043C000F0B585B00F460C3069461022002303F08B
:1043D0002FFE6C4605460DEB0006B44205D238466A
:1043E00014F8011BFFF74CFFF7E7284605B0F0BDB6
:1043F00010B590B0224801A901224FF0FF3303F01D
:1044000007FB204806A902224FF4797303F000FB52
:104410001D480BA904224FF4797303F0F9FA1B4AE3
:104420001B4B18781378042814BF184643F001007A
:104430001070FFF7ADFE00211648FFF7C1FF012104
:1044400004461548FFF7BCFF002808BF002C0CBF2E
:1044500001240024FFF7BCFD002CE0D04FF0FF301A
:104460000E4903F03DFB8207044602D506A803F07F
:10447000E7FA6307D3D50BA803F0E2FACFE700BF52
:10448000B49AFF1FDCA2FF1F58A4FF1F889FFF1FC5
:104490005CA6FF1F54A4FF1FD8A2FF1FA086010027
:1044A00001280CBF024803484FF0FF3303F070BEF1
:1044B00008A3FF1F84A4FF1F0000000000000000ED
:1044C00022200149FFF7F4BD5C86FF1F00000000B9
:1044D00006494A8802F1100303EB430319440831EB
:1044E0002C3B00FB03111046FFF7C2BD5886FF1F8F
:1044F00011200149FFF7DCBD0486FF1F000000000A
:104500000349488800EB400319443831FFF7B0BD38
:104510000086FF1F000000000000000000000000F7
:10452000104B37B50024104D1C70FFF721F90F48D0
:104530000221FFF7B5FCFFF793FE29460C4803F074
:1045400027FF29460B4803F023FF0B4B0B481B604A
:104550004FF4996100947F22094B03F079F803B07E
:1045600030BD00BF9E9AFF1FA088FF1F9888FF1FC5
:10457000D8A2FF1F54A4FF1FB49AFF1FC09AFF1FA9
:10458000F1430000000000000000000000000000F7
:104590000148002103F094BAB49AFF1F0000000004
:1045A00008B50348FFF78CFDBDE80840FFF7F0BFF2
:1045B0005C86FF1F000000000000000000000000FB
:1045C00008B50348FFF77CFDBDE80840FFF7E0BFF2
:1045D0000486FF1F00000000000000000000000033
:1045E00070B586B0FFF78CFF10B1234B01221A7013
:1045F00000242646E0B2FFF76BF8204B01ADE35CE8
:1046000060550134834218BF46F00106122CF1D1E7
:104610001B4B996A1B4B1A6816B98A1A642A1ED951
:104620001960164B2C4605AE224603CAB2421860EA
:104630005960144603F10803F6D112881A80FFF777
:104640003FFF0023EA5CC2540133122BFAD1FFF77B
:10465000A7FFFFF74DFF01230370FFF7B1FF002015
:10466000FFF736FF28B1002106B0BDE87040FFF724
:1046700067B806B070BD00BF9E9AFF1F9F9AFF1FCC
:1046800038A2FF1FB89AFF1F0000000000000000C2
:10469000014B1878704700BF9E9AFF1F0000000072
:1046A000004870474486FF1F000000000000000023
:1046B000014B1860704700BF909FFF1F0000000073
:1046C000024B186808B1036818477047909FFF1F96
:1046D000124B1B6870B50446F3B1114D5B689847E7
:1046E0002B78580718D5D90702D50E4801F008FCD9
:1046F00004F110062B78DA0703D50B48217801F076
:10470000FFFB0134B442F5D12B78DB0704D5074811
:10471000BDE8704001F0F4BB70BD00BF909FFF1F6B
:1047200011A0FF1FB0E80000C2E8000069E9000026
:10473000024B1B680BB19B6818477047909FFF1F87
:10474000054B1988814205D01880044B1B680BB1BA
:10475000DB681847704700BF8C9FFF1F909FFF1FAB
:10476000054B1988814205D01880044B1B680BB19A
:104770001B691847704700BF8A9FFF1F909FFF1F4C
:1047800008B501F005FAFEF7B3FEBDE8084001F0F8
:10479000A7BC0000000000000000000000000000B6
:1047A00038B50E4C23780546580711D5D90702D5E0
:1047B0000B4801F0A5FB2378DA0703D50948294601
:1047C00001F09EFB2378DB0702D5074801F098FB38
:1047D0002846BDE83840FEF7C3BF00BF11A0FF1F49
:1047E000C8E80000DBE8000069E900000000000004
:1047F0002DE9FF41FEF7DCFE0024E7B23846354ED6
:10480000FEF766FFA35D434013F0FF05804616D117
:104810000134122CF1D1FF238DF808308DF80930C6
:1048200000238DF80A3001F0BBF940F00100ADF82B
:104830000C0004AB13E9030000F05AF82AE0264B01
:104840001B78980701D5FEF74BFF002345FA03F1CB
:10485000C907DAB21AD501259D4015EA080F14BF21
:10486000012300238DF802308DF800208DF80170AF
:1048700001F096F940F00100ADF804009DE8030056
:1048800000F036F8335D5D40355503E00133052B0C
:10489000DCD1BDE701F024FFFFF7A2FE0F4B1D683E
:1048A0000F4B1C68FFF70CFF21460E4C02462846B2
:1048B00005F056FD2578FFF703FF854207D0FFF787
:1048C000FFFE207004B0BDE8F041FFF769BF04B0FF
:1048D000BDE8F081959FFF1F11A0FF1FF89FFF1FEC
:1048E000F49FFF1F949FFF1F0000000000000000C6
:1048F0001FB58DE803009DE803000022039202909B
:10490000ADF80C1004AB13E9030000F091FD05B005
:104910005DF804FB00000000000000000000000043
:1049200008B5002800F09080021FD2B2A02A02D859
:1049300000F06EFF0BE000F12002D2B2072A0AD885
:1049400000F0070301209840C0B200F0F1FFBDE87D
:10495000084001F055B800F15B02D2B2022A0BD830
:10496000A52804D0A6280CBF8220832000E0812047
:10497000BDE80840FFF7E4BE00F15802D2B2142AA5
:1049800062D8A8282BD0A9282BD0AA282BD0AB28B6
:104990002BD0AC282BD0BB282BD0BC282BD0AD28BB
:1049A0002BD0B0282BD0AE282BD0AF282BD0B128BD
:1049B0002CD0B2282DD0B3282ED0B4282FD0B52893
:1049C00030D0B62831D0B72832D0B82833D0B92863
:1049D00034D0BA2840F22A2018BF002030E0E2206C
:1049E0002EE0E9202CE0EA202AE0B52028E0B620DD
:1049F00026E0B32024E0B42022E0B72020E0CC2041
:104A00001EE0CD201CE040F2831019E04FF4C57089
:104A100016E04FF4C97013E04FF4CA7010E040F292
:104A200021200DE040F223200AE04FF4097007E056
:104A300040F2252004E040F2262001E040F2272049
:104A4000BDE80840FFF78CBE08BD00000000000074
:104A500008B5034648B3021FD2B2A02A02D800F01C
:104A60001FFF0BE000F12002D2B2072A0AD800F0A3
:104A7000070301209840C0B200F062FFBDE8084083
:104A800000F0BEBF00F15B02D2B2022A04D80020BF
:104A9000BDE80840FFF754BE5833DBB2142B04D8EE
:104AA0000020BDE80840FFF75BBE08BD0000000025
:104AB00008B528B100F03CFFBDE8084000F0A0BFF9
:104AC00008BD000000000000000000000000000021
:104AD00008B528B100F034FFBDE8084000F090BFF1
:104AE00008BD000000000000000000000000000001
:104AF0002DE9F8438679857881460C4636090DB153
:104B000000F03EFF00F074FE78B185B104F120039F
:104B1000DBB2072B0DD9022000F052FE00F068FE38
:104B200080F001005FFA80F805E0804603E0A846C7
:104B300001E04FF00008C4F303330F2B00F268814B
:104B4000DFE813F0100010003F003F007C009200EF
:104B5000660166019C006601F700F70057016601D7
:104B600066016001C4F3072303F0F00313B9C4F333
:104B7000032602E0260906F0F006E7B275B15EB141
:104B80002034E4B2072C304602D800F0D1FE01E018
:104B900000F0E6FE00F034FF384622E13846FFF729
:104BA00057FF002E00F034812037FFB2072F304628
:104BB00002D800F0C5FE01E000F0DAFE00F020FFB0
:104BC00026E1C4F3072303F0F003202B18BF2709C5
:104BD000E0B20CBFC4F3032707F0F00710B10128BF
:104BE0000FD017E035B106B3012E38461ED100F0C4
:104BF000E7FE0DE116B1012E00F00A8100F0E8FE9B
:104C00001AE01DB1052E00F203810EE0042E00F221
:104C1000FF8011E06DB146B199F80630D90740F137
:104C2000E0806FF3071389F806303846FFF740FF3E
:104C3000EEE0002E40F0DA80384698E0C4F381239D
:104C400013B1012B08D0E3E015B1C4F3090000E073
:104C50002846FFF775FDDBE015B1C4F3090000E05D
:104C60002846FFF77DFDD3E0E0B215B101F0D0FB9F
:104C700001E001F03DFC01F0CBFCC9E014F4407F01
:104C800029D1002D40F0C480E2064FEAD40348BF8A
:104C90000F2003F01C0304F00F0648BF9840C4F334
:104CA00081244CBFC0432846022C06FA03F608D0E4
:104CB000032C0AD0012C40EA060009D000F0B0FC19
:104CC000A6E0304300F0B4FCA2E000F0A9FC3046BE
:104CD00000F09EFC9CE015B1C4F3002301E0C4F396
:104CE0004023002B00F09480E30803F01C0304F041
:104CF0000F0504F010029D4002F0FF0012B10F20DA
:104D00009840C043C4F38124022C08D0032C0AD05D
:104D1000012C40EA050009D000F0DAFC78E02843D5
:104D200000F0DEFC74E000F0D3FC284600F0C8FC84
:104D30006EE0E0B2A0F1E003142B4FD8DFE803F0FF
:104D40000B0B0B0B0B0B0B0B0B0B0B0B0B0B0B0BB3
:104D50001A242A313A0000F00F06C4F304201DB1D2
:104D600000F07EFC304661E700F08AFC3046FFF739
:104D7000AFFE4DE035B1042E4AD8C4F3042000F054
:104D80008FFC45E0052EF7E735B1C4F3042000F0B1
:104D900067FC3DE0002DF8D0C4F3042000F070FC67
:104DA00036E025B1C4F3042000F052FC30E000F0FE
:104DB00047FC2DE04DB1C4F30424204600F050FC24
:104DC0002046032100F0F4FC22E0012000F0F8FC72
:104DD000012E1DD9022000F0F3FC19E025B1002EB0
:104DE000D3D0FFF79DFD13E0002ED5D0FFF730FEA6
:104DF0000EE0E1B2C4F303224846FEF771FF00F073
:104E000097FB05E04846E1B2C4F30322FEF770FFCA
:104E1000B8F1000F13D000F0C3FC10F001000ED168
:104E200089F8020000F0B4FC00F01AFC484600F0DB
:104E30000FF800F0ADFCBDE8F84300F021BCBDE880
:104E4000F8830000000000000000000000000000E7
:104E500037B58188027843780446C9B18DF80130AE
:104E60008DF80020BDF800204FF6FF739A420FD056
:104E7000FEF7EEFC60B12188A07800F079FC0546D1
:104E800000F036FC00F0B4FB20462946FFF730FE68
:104E900003B030BD00000000000000000000000072
:104EA00008B500F06DFD00F083FD00F031FD00F06D
:104EB000A7FD01F0B5FC01F0ABFB0020FFF740FCC3
:104EC0000020BDE80840FFF74BBC000000000000D8
:104ED00008B500F03DFDBDE80840FFF7E1BF000068
:104EE00007B5ADF80400019800F032FCC0F30333BD
:104EF000023B0D2B15D801229A4012F4105F0DD100
:104F000040F20333134073B1C0B2F0280DD002D881
:104F1000DF2806D809E0F42803D106E0C0F3C0205A
:104F200004E0002002E0184600E0012003B05DF834
:104F300004FB000000000000000000000000000072
:104F400082B002AB03E9030002B07047000000002A
:104F500082B002AB03E9030002B07047000000001A
:104F600010B5094B1C78094B1B78A3420BD0084B9A
:104F700003EBC40253F8340051680134FFF7E8FF33
:104F800004F00704EFE710BDF09FFF1FF19FFF1F24
:104F9000A89FFF1F000000000000000000000000AC
:104FA000024B18685968FFF7D3BF00BFE89FFF1F87
:104FB000F7B5274A93791B0948D19378002B45D040
:104FC000244B1878244B1B7883423FD09188137868
:104FD0005778002936D08DF800308DF80170BDF873
:104FE00000504FF6FF74A5422CD01C4EC40035195A
:104FF00095F801E0BE45374624D116F830609E4250
:1050000020D1AB78F3B9AB888B423BBFC1F57F4170
:10501000FF315B1A5B18C72BCCBF002301238BB178
:10502000907901213B1961F3071090719A79084832
:1050300061F307129A71FFF70BFF03B0BDE8F04070
:10504000FFF78EBF013000F00700BBE703B0F0BDF3
:10505000E89FFF1FF09FFF1FF19FFF1FA89FFF1FEB
:105060002DE9F047BE4E054694B0B3880068009025
:10507000EC4629786A78AF78B5F8048096F800E0B5
:105080007078002B00F01C818DF808E08DF8090085
:10509000BDF808904FF6FF74A14500F0138196F813
:1050A00002A0BAF1000F00F00B81984503D3C3EBC7
:1050B0000804C72C04E0C3F57F43FF334344C72BE8
:1050C000CCBF00240124DFF89892B379002C00F0C3
:1050D000B48013F0F00F56D18DF811008DF810E068
:1050E000BDF810E04FF6FF70864519D08DF800101E
:1050F0008DF80120B9F80000BDF800E086450FD119
:1051000077B9012262F3071389F80630FFF748FFE9
:105110004846FFF79DFE99F80630AB713C467AE1B0
:10512000B8F1000F25D08DF838108DF83920BDF872
:1051300038004FF6FF7398421BD0B846CFB9894B61
:1051400089481B7890F800C0634500F03F81DFF884
:105150001CE20EEBC30090F80190914505D11EF8BA
:1051600033E08E4501D1807818B9013303F007038D
:10517000EAE73C46002F00F04E81B37943F001038B
:10518000B371002447E18DF819008DF818E0BDF8DF
:1051900018E04FF6FF70864515D08DF800108DF899
:1051A0000120B9F80000BDF800E086450BD157B9E1
:1051B000AB712846FFF74CFE2B68C9F800306B68CE
:1051C000C9F8043050E08DF800108DF801200098E7
:1051D000FFF786FE60B35FB3B3791F2B0DD9604A2A
:1051E000ADF844801288ADF8402000228DF84220AE
:1051F0008DF8463010A8FFF72BFE2B6833606B68E4
:105200007360FFF7D5FEFFF7CBFE14E08DF82100A9
:105210008DF820E0BDF820E04FF6FF70864526D1DE
:105220008DF800108DF801200098FFF759FEA8BBFB
:105230002846FFF70DFE0124EDE013F0F00FE5D155
:105240008DF801208DF800108DF80270ADF8048003
:105250009CE80300FFF774FE4846FFF7F9FD484657
:105260002146082208F034FFFFF79AFED3E08DF8BC
:1052700000108DF80120B9F80000BDF800E0864567
:10528000CED1002FCCD1AB712846FFF7E1FD2146EE
:105290004846082208F01CFF5446BCE0002FC7D047
:1052A000B3791F2BA9D92E4AADF84C801288ADF8DE
:1052B000482000228DF84A208DF84E3012A89AE737
:1052C000002B75D08DF828E08DF82900BDF82890C6
:1052D0004FF6FF74A1456BD0B478002C68D1984587
:1052E0003BBFC3F57F44FF34C3EB08044444C72CE1
:1052F000CCBF00240124002C4CD03C46002F97D07A
:10530000174FABB38DF830E08DF83100BDF83000A9
:105310004FF6FF7398422BD08DF800108DF80120C6
:105320003B88BDF80000984222D1BB79DA0712D43D
:105330001A0910D01A090F2A18BF0132AB711CBF0D
:1053400062F30713AB712846FFF782FD2B683360C9
:105350006B68736088E72B6833606B6873605AE032
:10536000E89FFF1FF09FFF1FF19FFF1FA89FFF1FD8
:105370008DF800108DF801200098FFF7B1FD00288E
:105380007FF43BAFB379284643F00103B371FFF7D5
:105390005FFD40E08DF800108DF801208DF802705F
:1053A000ADF804809CE80300FFF7CAFD1C4857E7EE
:1053B000002F3FF43DAF8DF800108DF801200098CC
:1053C000FFF78EFD00283FF433AF16E78DF801207C
:1053D0008DF80010009800F0BBF9C0F30332C3B29F
:1053E000032A13D8DFE802F00202070710F4706FF7
:1053F00008D03BB90EE010F4706F03D0AA7912F018
:10540000F00F07D02033DBB2072B03D92846FFF774
:105410001FFDA0464446204614B0BDE8F08700BFFB
:10542000E89FFF1F000000000000000000000000D7
:10543000F0B589B08DE803006846FFF711FE364DE0
:105440009DF800E09DF80120BDF804C0334E0746EA
:1054500088B1BCF1000F4CD08DF808E08DF8092020
:10546000BDF808204FF6FF739A4242D09DE8030032
:10547000FFF76EFD3DE09DE8030006AB83E8030007
:105480008DF818E08DF81920ADF81CC0BCF1000FA4
:105490002FD08DF811208DF810E0BDF810104FF6C8
:1054A000FF72914225D02C783178621C02F00702FD
:1054B0008A4224D01A4F2A7003CB07EBC40E47F858
:1054C0003400CEF80410FFF74BFD12E0144F07EB49
:1054D000C000FFF7C5FDE0B1237807EBC30257F822
:1054E00033005168FFF734FD2378013303F00703DD
:1054F000237030782B78094C8342E7D109E0FFF71D
:10550000E7FC3946082207482F70377008F0E0FDA5
:10551000EFE709B0F0BD00BFF19FFF1FF09FFF1F35
:10552000A89FFF1FE89FFF1F000000000000000071
:1055300070B50446002854D000262078732804F162
:10554000010506D804283BD201280AD0022819D028
:1055500070BD752831D027D3A0F184036F2B32D9C9
:1055600070BD637803F12002D2B2072A04F102056C
:1055700006D803F007039840C0B200F009FA10E023
:1055800018461DE0607800F12003DBB2072B04F120
:1055900002051AD800F0070301209840C0B200F0BD
:1055A000FFF900F02DFA12E0A51C64787CB16420AC
:1055B000013C02F0A5F8E4B2F8E76678023407E0AF
:1055C000FFF7AEF903E000F07F00FFF741FA2C4649
:1055D0003546002DB1D06420013D02F091F8EDB2C6
:1055E000F7E770BD000000000000000000000000B0
:1055F00070470000000000000000000000000000F4
:10560000014B1860FFF74CBCF89FFF1F0000000023
:10561000024A136818431060FFF742BCF89FFF1F4F
:10562000024A136818401060FFF73ABCF89FFF1F4A
:10563000024A136858401060FFF732BCF89FFF1F02
:10564000024B00221A60FFF72BBC00BFF49FFF1F24
:105650000123024A83401360FFF722BCF49FFF1F1F
:105660000449012303FA00F20B6813430B60FFF7B0
:1056700017BC00BFF49FFF1F0000000000000000E7
:105680000449012303FA00F20B6823EA02030B60CA
:10569000FFF706BCF49FFF1F0000000000000000A1
:1056A0000449012303FA00F20B6853400B60FFF733
:1056B000F7BB00BFF49FFF1F0000000000000000C8
:1056C000024A136818431060FFF7EABBF49FFF1FFC
:1056D000024A136818401060FFF7E2BBF49FFF1FF7
:1056E000024A136858401060FFF7DABBF49FFF1FAF
:1056F00070470000000000000000000000000000F3
:1057000073B50E4BADF804001E680D4B1B681F25CA
:105710001E4326FA05F3DB07ECB206D520460199B5
:10572000FEF7B6F980B2012804D115F1FF35F0D2A9
:10573000002000E0204640B202B070BDF89FFF1F7D
:10574000F49FFF1F000000000000000000000000A8
:1057500007B5ADF804000198FFF7D2FF0199C0B278
:10576000FEF796F903B05DF804FB000000000000AE
:1057700007B5ADF804100198FFF7EAFF03B05DF834
:1057800004FB00000000000000000000000000001A
:10579000024B93F90000C0F3C7007047FC9FFF1F46
:1057A000024B187800F00700704700BFFC9FFF1FF6
:1057B000024B41EAC0011970FFF752BFFC9FFF1F67
:1057C000074A137823EA00001070420706D140B25E
:1057D000834203D0C0F3C700FFF752BF704700BF3A
:1057E000FC9FFF1F00000000000000000000000000
:1057F000034B187810F0070018BF0120704700BF56
:10580000FC9FFF1F000000000000000000000000DF
:10581000F0B51D4B1B78014613B11C4B1B782BB9FF
:105820001B4B18680022441CFF231FE0C3080E2BEB
:105830000AD8174A1268134400F0070101228A406F
:1058400059780A435A70F0BD124B1B78D80719D506
:105850001148BDE8F04000F053BB5FB2013702D100
:10586000002D08BF334601320E2A05D014F8015F1F
:105870008D42D6B2F1D105E05BB25A1C02D003448E
:105880009970F0BDF0BD00BFB288FF1FA488FF1F54
:10589000A888FF1F11A0FF1FE0E800000000000023
:1058A000154B1B78014613B1144B1B7823B9144BCD
:1058B0001B685A1C0F3315E0C3080E2B0BD8104A77
:1058C0001268134400F0070101228A40597821EA46
:1058D00002025A7070470B4B1B78DB070AD50A4847
:1058E00000F00EBB12F8010F884204BF00201070B8
:1058F0009A42F7D1704700BFB288FF1FA488FF1FEC
:10590000A888FF1F11A0FF1FFEE800000000000094
:10591000044B1B6803F10F02002103F8011F93429F
:10592000FAD17047A888FF1F0000000000000000A7
:10593000024A137818431070704700BF00A0FF1F81
:10594000024A137823EA00001070704700A0FF1F7E
:10595000014B00221A70704700A0FF1F00000000DA
:10596000024A137818431070704700BFFD9FFF1F55
:10597000024A137823EA000010707047FD9FFF1F52
:10598000014B00221A707047FD9FFF1F00000000AE
:10599000024A137818431070704700BFFF9FFF1F23
:1059A000024A137823EA000010707047FF9FFF1F20
:1059B000014B00221A707047FF9FFF1F000000007C
:1059C000014B1870704700BFFE9FFF1F00000000D2
:1059D000014B00221A707047FE9FFF1F000000005D
:1059E000064B1B68002003F10F0213F8011F09B1D9
:1059F0000130C0B29342F8D1704700BFA888FF1FA2
:105A000038B50D4B0D4D1C680D4B1A780D4B1B789E
:105A100013430D4A12781A432B78227033B1134383
:105A20002370FFF7DDFF08B100232B702046BDE88F
:105A30003840FEF74DBE00BFA888FF1FFE9FFF1F26
:105A4000FD9FFF1F00A0FF1FFF9FFF1F0000000022
:105A500008B500204FF6ED6100F0FAFA02200021AF
:105A600000F0EEFA0320002100F0EAFA0420002101
:105A700000F0E6FA05200021BDE8084000F0E0BA99
:105A800008B5002000F0ACFA4FF6ED63C31A584297
:105A9000584108BD000000000000000000000000A8
:105AA000022000F085BA00000000000000000000A5
:105AB0000146022000F0C4BA00000000000000000F
:105AC000032000F075BA0000000000000000000094
:105AD0000146032000F0B4BA0000000000000000FE
:105AE000042000F065BA0000000000000000000083
:105AF0000146042000F0A4BA0000000000000000ED
:105B000040F2A46001F0FCBD0000000000000000B5
:105B100070470000000000000000000000000000CE
:105B200070470000000000000000000000000000BE
:105B300010B5FFF7EDFFFDF73BFDFFF7F1FF002488
:105B4000E0B2FDF7C5FD18B90134122CF8D110BD33
:105B5000012010BD00000000000000000000000057
:105B600008B5FFF7F5FEFFF70BFFFFF7D1FE00F0DA
:105B700057FE0020FEF7E4FD0020BDE80840FEF7D8
:105B8000EFBD000000000000000000000000000069
:105B9000704700000000000000000000000000004E
:105BA000202383F31188084B986A002383F311881C
:105BB0004FF47A73434303F5C3339F330348B3FB76
:105BC000F0F080B2704700BF38A2FF1FA08601002E
:105BD000094B0A499A6A48434FF47A7300F2E73056
:105BE000B0FBF3F0101A584300F5C3309F30B0FB00
:105BF000F1F080B2704700BF38A2FF1FA0860100FD
:105C00000A4B0B4A30B503F1100518685968144661
:105C100003C40833AB422246F7D118689B88A3809F
:105C2000044B2060044ADA6030BD00BF40E200004F
:105C300000E0034000ED00E00400FA050000000071
:105C4000F0B50124B0FBF4F58D4201D34C43F9E7E4
:105C50000026D4B1B0FBF4F504FB1500B4FBF1F45D
:105C60001EB9002D01DC002CF3D1092D03F1010E2A
:105C7000EFB204DD002A14BF3725572500E0302598
:105C80003D441D7001367346E3E71C70F0BD000013
:105C9000F0B50124B0FBF4F58D4201D34C43F9E794
:105CA0000026D4B1B0FBF4F504FB1500B4FBF1F40D
:105CB0001EB9002D01DC002CF3D1092D03F1010EDA
:105CC000EFB204DD002A14BF3725572500E0302548
:105CD0003D441D7001367346E3E71C70F0BD0000C3
:105CE0002DE9F041069D002B06460F4614BF4FF0EC
:105CF00030084FF020082B4613F8011B09B9144651
:105D000003E0002AFBDD013AF6E7002C04DD304613
:105D10004146B847013CF8E715F8011B11B1304680
:105D2000B847F9E7BDE8F08100000000000000007E
:105D30002DE9F04F804687B0894615461C462978E4
:105D4000002900F0C980252902D00135404684E0B1
:105D50006A78302A08BFAA78A2F1300319BFAE1CB6
:105D60004FF0000AEE1C4FF0010A092B4FF000071C
:105D700019D8A2F13003D9B2092905D80A2202FBA9
:105D8000073716F8012BF4E7A2F16103052B02D8BF
:105D9000A2F1570305E0A2F14103052B03D8A2F1BC
:105DA00037030A2BEADD6C2A3BD13278632A06F1ED
:105DB000010539D007D8252A4DD0582A0DD0002A00
:105DC00000F08A80BBE7732A37D002D8642A63D0F8
:105DD000B5E7752A50D0782AB1D1261D2068A2F1E6
:105DE000580462424FF01001624103ABFFF728FFF5
:105DF00034460DE0582A32D1A2F158035A422068A5
:105E00005A41102103ABFFF743FF251D2C463546B1
:105E100003AB0093404649463A465346FFF760FFBE
:105E20008DE7632A05D1354640462178261DC847AF
:105E30000CE00DD9732A16D13546236800934046ED
:105E400049463A460023261DFFF74AFF344676E7C7
:105E5000252ACFD1354640462521C8476FE7002A7D
:105E60003AD035466BE702D8642A25D0F9E7752A7F
:105E700007D0782AC0D0F4E7261D20680A21002226
:105E8000B3E7206804F1040B0A21002203ABFFF7FB
:105E9000FFFE35465C46BBE72068002804F1040697
:105EA00008DA2D238DF80C3040420DF10D030A2144
:105EB00000229BE703ABFAE72068002804F1040BFB
:105EC00008DA2D238DF80C3040420DF10D030A2124
:105ED0000022DCE703ABFAE707B0BDE8F08F000073
:105EE000024B1960024B1860704700BF14A0FF1FDF
:105EF00018A0FF1F000000000000000000000000CC
:105F00000FB407B5074904AB0868074953F8042BD9
:105F100009680193FFF70CFF03B05DF804EB04B0D0
:105F2000704700BF18A0FF1F14A0FF1F0000000053
:105F3000024B5B78DB07FBD5704700BF00000240D7
:105F40007FB5164B6A4603F110066D46186859680E
:105F5000144603C40833B3422246F7D1104C637889
:105F6000990711D58023E3713923E3720323A372C8
:105F700072B645F001032046984762B6237813F0C5
:105F8000700301D0237007E044F62163044A52787D
:105F9000D20701D4013BF9D104B070BD56E2000034
:105FA00000000240000000000000000000000000AF
:105FB0001F2810B5044609D8054B5B78DB0701D4D0
:105FC000FFF7BEFF04F1A054207810BD002010BDE3
:105FD000000002400000000000000000000000007F
:105FE0001E2810B5044609D8054B5B78DB0701D4A1
:105FF000FFF7A6FF04F1A054208810BD002010BDBB
:10600000000002400000000000000000000000004E
:106010001F2838B504460D460FD8084B5B78DB07C0
:1060200001D4FFF78DFF04F1A0542378AB4204D0D4
:106030002570BDE83840FFF77BBF38BD0000024047
:10604000FFF7E6BF000000000000000000000000B5
:1060500038B505460C46C9B2FFF7DAFF681C210ABD
:10606000BDE83840FFF7D4BF00000000000000008A
:106070002DE9F34107460025EEB23046FDF728FB37
:106080000024804648FA04F2D207E3B203D4013474
:10609000052CF7D10BE08DF804308DF80560002059
:1060A0000199FDF72DFE8742F1D1012003E0013572
:1060B000122DE1D1002002B0BDE8F0810000000007
:1060C00010B504462C20FFF7D3FF20B12046BDE8D1
:1060D0001040FFF7CDBF10BD000000000000000021
:1060E00010B5FFF7CDFC08B9FFF7B2FC8448FFF705
:1060F00007FF6524013C14F0FF0406D0FDF758FAB1
:106100004FF47A7001F0FCFAF4E77E48FFF7F8FEEE
:106110002920FFF7D5FF002840F0F0802A20FFF764
:10612000CFFF08B1FFF794FC0520FFF7C9FF08B1C6
:10613000FFF766FDFFF7B4FC734C20700720FFF7F4
:10614000BFFF50B31B20FFF7BBFF38B12378C3F369
:10615000400282F0010262F341031DE00E20FFF7CE
:10616000AFFF38B12378C3F3800282F0010262F3FB
:10617000820311E01020FFF7A3FF237830B1C3F3AF
:10618000C00282F0010262F3C30305E0C3F3000220
:1061900082F0010262F30003237020785B4CFFF76A
:1061A00087FCFFF79DFC2080E020FFF789FF38B1D6
:1061B0002378C3F3000282F0010262F3000323702C
:1061C0003920FFF77DFF38B12378C3F3400282F016
:1061D000010262F341032370E220FFF771FF38B13F
:1061E0002378C3F3800282F0010262F382032370FA
:1061F000E620FFF765FF38B12378C3F3C00282F0D1
:10620000010262F3C3032370E320FFF759FF38B1A3
:106210002378C3F3001282F0010262F304132370A7
:106220003520FFF74DFF38B12378C3F3401282F0D9
:10623000010262F3451323703120FFF741FF38B1AB
:106240002378C3F3801282F0010262F38613237075
:106250001120FFF735FF38B12378C3F3C01282F065
:10626000010262F3C71323702078FFF741FC237803
:10627000274AC3F3C01327201370FFF721FF0446FA
:106280001E20FFF71DFF10B144F00204E4B21F20EE
:10629000FFF716FF10B144F00404E4B22020FFF72A
:1062A0000FFF10B144F00804E4B22120FFF708FF0B
:1062B00010B144F01004E4B22220FFF701FF10B146
:1062C00044F02004E4B22320FFF7FAFE10B144F0BA
:1062D0004004E4B22420FFF7F3FE18B164F07F0419
:1062E000E4B200E024B12046FFF7F2FB204601E0D3
:1062F000FFF7E6FBBDE81040FFF782B910BD00BF15
:106300001CE9000031E9000011A0FF1F1CA0FF1FC5
:10631000A488FF1F00000000000000000000000033
:106320001A4B1B78D90706D5194B187800EB80005B
:10633000C0F38F001EE09A0706D5154B187800EBC6
:106340008000C0F34F0015E05B0704D5104B1878B0
:1063500000EB80000EE00F4B1B787BB10E4A1078EB
:106360008342F3D20A4A127802EB8202534393FB30
:10637000F0F080B27F2804D828B100E00520C0B238
:1063800070477F2070470120704700BF1EA0FF1F8D
:10639000AD88FF1F24A0FF1FAE88FF1F0000000074
:1063A000154B1B78D90703D5144B1878800819E0D2
:1063B0009A0703D5114B1878400813E05B0702D504
:1063C0000E4B18780CE00E4B1B7893B10D4A1278E7
:1063D0009342F5D20949087810FB03F393FBF2F0DE
:1063E0007F2802D818B1C0B270477F2070470120C3
:1063F00070470120F7E700BF1EA0FF1FB088FF1FF6
:1064000024A0FF1FAC88FF1F000000000000000058
:10641000F02808B503D1FFF783FF404203E0F128DD
:1064200004D1FFF77DFF2D4B987008BDF22803D1F2
:10643000FFF776FF404203E0F32804D1FFF770FF37
:10644000264B587008BDF92802D1FFF7A9FF04E0D8
:10645000FA2805D1FFF7A4FF4042204BD87008BDB1
:10646000FB2803D1FFF79CFF404203E0FC2804D146
:10647000FFF796FF194B187108BDF42801D1174A90
:1064800018E0F52801D1154A1BE0F62801D1134A7E
:106490001EE0F72804D1114A137843F008031AE0EC
:1064A000F82804D10D4A137843F0100313E0FD28B7
:1064B00004D10B4A137843F001030CE0FE2804D109
:1064C000074A137843F0020305E0FF2804D1044A89
:1064D000137843F00403137008BD00BF1FA0FF1F13
:1064E0001EA0FF1F000000000000000000000000D0
:1064F000F028424B06D193F90220002A6DDA0022DF
:106500009A706AE0F12804D193F90220002AF6DC9F
:1065100063E0F22806D193F90120002A5DDA002217
:106520005A705AE0F32804D193F90120002AF6DCCE
:1065300053E0F92806D193F90320002A4DDD00220B
:10654000DA704AE0FA2804D193F90320002A44DAE9
:10655000F5E7FB2806D193F90420002A3DDA002252
:106560001A713AE0FC2804D193F90420002AF6DCE1
:1065700033E0F42803D11A7822F0010216E0F5285E
:1065800003D11A7822F0020210E0F62803D11A781B
:1065900022F004020AE0F72803D11A7822F0080258
:1065A00004E0F82804D11A7822F010021A7014E0DE
:1065B000FD2804D112490A7822F001020CE0FE28DD
:1065C00004D10F490A7822F0020205E0FF2804D125
:1065D0000B490A7822F004020A7093F90130074A45
:1065E00053B992F902303BB992F9033023B992F9C9
:1065F00004300BB9034A1370704700BF1FA0FF1F80
:106600001EA0FF1F24A0FF1F0000000000000000CC
:1066100010B5234B1B781B073AD5224C2248FFF7B5
:106620006FFC21782148FFF76BFC2148FFF768FCDD
:1066300094F901101F48FFF763FC1F48FFF760FC47
:1066400094F902101B48FFF75BFC1B48FFF758FC4E
:1066500094F903101748FFF753FC1748FFF750FC55
:1066600094F904101348FFF74BFC1448FFF748FC5B
:10667000134B14481978FFF743FC1348FFF740FC0D
:10668000124B10481978FFF73BFC1148FFF738FC14
:106690000448FEF74DF8FFF783FA0E4B188010BD43
:1066A00011A0FF1F1FA0FF1F38E90000DBE800005A
:1066B0005BE900005DE900002FE9000060E90000EF
:1066C00024A0FF1F63E9000066E900001EA0FF1F71
:1066D00068E9000026A0FF1F000000000000000085
:1066E000474B70B51888FFF773FA464B1A7819466E
:1066F00012B1454B1B7804E0444B1B7803EB83033A
:106700005B00984277DB424C637863B994F90200EE
:1067100000286DD194F90300002869D194F9040090
:10672000002865D170BDFF2A01D001320A705BB22A
:10673000002B02DDFFF7F4FD607094F90130002BAF
:1067400004DAFFF7EDFD324B4042587094F9023005
:10675000002B03DDFFF7E4FD2D4B987094F9023018
:10676000002B04DAFFF7DCFD294B4042987060787B
:10677000274DB8B1AE78AEB140B2FBF75BFF1EA3B8
:10678000D3E90023FBF7BCFFFCF75AFA687070B23C
:10679000FBF750FF18A3D3E90023FBF7B1FFFCF789
:1067A0004FFAA87094F90330002B03DDFFF7F8FDD2
:1067B000174BD87094F90330002B04DAFFF7F0FD83
:1067C000134B4042D87094F90430002B03DDFFF7DF
:1067D000E7FD0F4B187194F90430002B04DAFFF732
:1067E000DFFD0B4B40421871BDE87040FFF710BF52
:1067F000FF2A9AD1A1E770BD666666666666E63FC7
:1068000026A0FF1F24A0FF1FB188FF1FAF88FF1F16
:106810001FA0FF1F0000000000000000000000009B
:1068200008B505220448002107F052FC034A002362
:106830001370034A137008BD1FA0FF1F24A0FF1F81
:106840001EA0FF1F0000000000000000000000006C
:1068500010B50F4B1A88013212F0FF0F1A801C4638
:1068600002D10220FCF77CFF63780A4922789B085A
:10687000CB5C9A4202D10020FCF772FF064A1368F3
:1068800043F080031360BDE8104001F091BA00BFEF
:1068900028A0FF1F6BE9000000000440000000007A
:1068A0000F4941F2380210B58B580E4C43F00103EA
:1068B0008B5000232360A3600B4B5A7842F00102F7
:1068C0005A701A7842F002021A7030236360552021
:1068D000022102F0C5F8236843F04003236010BD95
:1068E000007004400000044000400640000000002A
:1068F000024A136843F0010313607047000004402C
:10690000024A136823F0010313607047000004403B
:1069100003290BD005D801292CD002292CD11948E4
:106920007047212908D0222915D025E0032A23D831
:10693000154B03EBC2007047042B0CD8DFE803F0C3
:106940001E03050709001148704711487047114898
:10695000704711487047042B0ED8DFE803F011038D
:10696000050709000D4870470D4870470D487047EE
:106970000D4870470D487047002070470C4870471D
:106980000C4870472CEA000048EB0000BCEA00000D
:1069900074EA0000A0EA00001CEC000010EA00000D
:1069A00030EC0000B4EA0000A8EA000038EC000077
:1069B000C4EA0000F0EA000000000000000000004F
:1069C0007047000000000000000000000000000010
:1069D0007047000000000000000000000000000000
:1069E00070470000000000000000000000000000F0
:1069F00070470000000000000000000000000000E0
:106A000070470000000000000000000000000000CF
:106A10002DE9F0411D46C36804460F4616460BB1EA
:106A200000F06EFC2046394632462B46BDE8F04168
:106A300000F046BC00000000000000000000000064
:106A400070B590F8D43003F07F02212A044640F05C
:106A5000978023F07F0303F0FF02002B46D0002A2B
:106A600000F08E8090F8D530022B3DD0032B30D033
:106A7000012B40F0858090F8D830042B71D8DFE8E6
:106A800003F003050A0F03004E4B05E04E4BC0F820
:106A9000C83005238DE04D4BC4F8C830102388E082
:106AA00090F8D700012840F08B8094F8D630022B64
:106AB00007D0032B40F08480454AC4F8C8201370E7
:106AC00004E0434AC4F8C82013700323C4F8CC3050
:106AD0001FE0B0F8D830002B52D13E4AC0F8C82091
:106AE0000120C4F8CC0015E03B4B0DE090F8D53008
:106AF0000A2B3CD00B2B10D0092B41D190F8D83069
:106B00000BB1042B3CD1354BC4F8C8300120C4F87C
:106B1000CC000023C4F8D03070BDB0F8D83003BB2F
:106B200090F8D6502B4B003518BF01251D702C4B0B
:106B30001D70B5B9284B1A789AB1202282F31188BA
:106B40001978284B2848294A594301F2E7314FF474
:106B50007A73B1FBF3F123468900FFF759FF85F300
:106B600011880023C4F8C830C4F8CC3024E01C4994
:106B7000194B0D7890F8D7201A70002DDCD0F0E773
:106B8000B4F8D42040F281639A4219D1626894F833
:106B9000D96094F8D830556894F8D71094F8D62076
:106BA000204643EA0623A84750B14368C4F8C830DA
:106BB0000368C4F8CC300023C4F8D030012070BD85
:106BC000002070BD40A0FF1F30A1FF1F50A0FF1F7D
:106BD000E0A0FF1FB288FF1F18A1FF1FA0A0FF1F8A
:106BE000A488FF1FA08601002CA0FF1F816C00005D
:106BF00013B52023044683F311880F480F4A234618
:106C000041F28831FFF704FFA3695B691B6813B188
:106C10000B4801F035F90A4801A901F021F90246B3
:106C200020B120460321102301F0A2FC002383F3AE
:106C3000118802B010BD00BF38A1FF1F816D000098
:106C4000E4A0FF1F000000000000000000000000A2
:106C500013B5046B2378042B0DD123891B070AD4A9
:106C6000064801A901F0FCF8024620B120460321A4
:106C7000102301F07DFC02B010BD00BFE4A0FF1F97
:106C800038B50546202383F311880378042B1DD1E2
:106C9000104B1B78D3B9104B1A781C46B2B103893C
:106CA0009B0704D401210D4A082301F061FC0C4B21
:106CB00021780C480C4A594301F2E7314FF47A73BA
:106CC000B1FBF3F12B468900FFF7A2FE002383F30B
:106CD000118838BDA488FF1F18A1FF1F40A0FF1F07
:106CE000A08601002CA0FF1F816C000000000000A6
:106CF000032938B504460D4622D0042924D00229A0
:106D00002CD1202383F311880121154A01F0F8FBCF
:106D100020462946134A01F0F3FB20460321124A7C
:106D200001F0EEFB20460421104A01F0E9FB204669
:106D300005210F4A01F0E4FB002383F3118838BDDD
:106D4000BDE83840FFF7D4BDFEF70AFFFFF7D8FDD6
:106D5000FDF7B6FCBDE83840FCF702BD38BD00BF0A
:106D60007CEA000094EC0000ECE90000CCEA0000B2
:106D7000B8EC00000000000000000000000000006F
:106D800013B52023044683F311880378042B19D10B
:106D900003891B0716D4114801F0D2F890B10F48AF
:106DA00001A901F05DF8019B02460344991A0F29DD
:106DB00003D8002103F8011BF8E720460321102324
:106DC00001F0D6FB23460648064A41F28831FFF718
:106DD0001FFE002383F3118802B010BDE4A0FF1F43
:106DE00038A1FF1F816D00000000000000000000BE
:106DF00037B541F23403164AD3585B0348BF02F556
:106E00002C32054648BF92F80831124844BF03F0BF
:106E1000EF0382F8083100F073FC28460E4901F0B8
:106E200057FB0E4A0E4892F808310E4943F0100302
:106E300082F808310C4B0024DC600C4B10228DE8EA
:106E40002800042300F0F4FF094BDC6003B030BDE0
:106E500000700440F0490200DCE900000020074017
:106E6000E4A0FF1F50A0FF1F2CA0FF1F516C0000CB
:106E700038A1FF1F0000000000000000000000001B
:106E800010B5094C94F8943043F0040384F894301E
:106E900040F2DC5000F034FC94F8943003F0FB0333
:106EA00084F8943010BD00BF0020074000000000AF
:106EB000014B1878704700BFA0A0FF1F0000000022
:106EC00010B52022044682F311881D4B197804293D
:106ED0004FF0000102D081F3118810BD81F31188B9
:106EE0001849097871B182F311881A89910604D57D
:106EF0001B6A58690C3000F02BFC11480521224612
:106F000010230DE082F311881A89920704D51B69BA
:106F100058690C3000F01CFC094801212246082366
:106F200001F026FB002383F31188074B224604F16E
:106F3000100152F8040B43F8040B8A42F9D110BD3A
:106F40005CA6FF1FA488FF1F40A0FF1F00000000D9
:106F500010B50246202383F31188084801780429DC
:106F60004FF0000407D184F3118883F311880221C4
:106F7000052301F0FDFA84F3118810BD5CA6FF1F04
:106F800007B5202383F31188094B1978042909D107
:106F900002228DF80420ADF8050001AA184603234B
:106FA00001F0E6FA002383F3118803B05DF804FBD7
:106FB0005CA6FF1F000000000000000000000000B1
:106FC00007B5202383F31188094A1178042908D1D1
:106FD0000323ADF80500104601AA8DF8043001F036
:106FE000C7FA002383F3118803B05DF804FB00BFE8
:106FF0005CA6FF1F00000000000000000000000071
:1070000008B50146202383F31188094B1B78042B14
:107010004FF0000002D080F3118806E080F3118861
:1070200004480A2200F06CFFC0B240B208BD00BFA5
:107030005CA6FF1FE4A0FF1F00000000000000008E
:107040000846FFF7DDBF0000000000000000000060
:1070500038B500F0D5FE00F0ABF82A48FFF7C8FEBF
:1070600000202949FEF73CFFFDF75AFA03F028F902
:10707000244C2378042B0DD0FDF70AFB18B1FDF743
:107080000FFB054607E0FDF7ABFA41F2883000F050
:1070900037FBEDE71D4D41F2883000F031FB1C4815
:1070A000FEF72EFFFDF76CFB2846FDF701FBFFF70F
:1070B000F7FB1848FEF724FF2378052B1ED116484E
:1070C000FEF71EFF03F07CF923780E4D052B0FD140
:1070D000FDF786FAFEF714FDB5F8DC309B07F3D513
:1070E000FEF726FD0028EFD02846FFF7C9FEEBE7A4
:1070F000FEF786FCFFF78CFA03F06AF9FDF778FBE0
:10710000DAE700BF5CA6FF1F41700000CC88FF1FBC
:10711000DCEC0000EDEC0000FEEC000000000000E4
:1071200070470000000000000000000000000000A8
:107130007047000000000000000000000000000098
:10714000FEE700000000000000000000000000005A
:1071500010B50C4B19685A6898680439824204D2F9
:1071600051F8044F42F8044BF8E7D9688A4203D239
:10717000002042F8040BF9E7034A10339342E9D3A5
:1071800010BD00BF04ED000084ED00000000000011
:10719000FEE700000000000000000000000000000A
:1071A000FEE70000000000000000000000000000FA
:1071B00010B51A4C00F0BCF800F072F800F0E0FCDA
:1071C00000F016FD20461649802200F0E9F901235F
:1071D00080F82030134B144AD96844F8180C21F475
:1071E000E0610904090C0A4300241049C461DA6013
:1071F000CA6842F08072CA600D490A6842F0010212
:107200000A601022DA77202283F8222084F3118882
:1072100062B60848BDE8104000F00ABA68A2FF1F35
:10722000ACED000000ED00E00003FA05F0ED00E039
:10723000001000E08CED00000000000000000000E5
:1072400070B5124CA26992F8233013B1013B82F859
:107250002330A36AE2690133A3620D4B9A421D46B3
:1072600013D09368013B9360E3699A686AB919681F
:107270000648DE68DA604D60C16182F311881869E2
:10728000B047202383F31188EEE770BD38A2FF1FBB
:1072900054A2FF1F000000000000000000000000DA
:1072A000054B03F11C02DA611A624FF0FF325A6299
:1072B00000229A62704700BF38A2FF1F0000000042
:1072C00010B5C2600A4A0361D3699C688C4202D23D
:1072D000091B1B68F9E75C68036044602060586024
:1072E00081609868411A99604FF0FF33536210BD76
:1072F00038A2FF1F00000000000000000000000096
:107300000368826899680A449A6042681360036857
:107310005A600023C360024B4FF0FF325A6270473D
:1073200038A2FF1F00000000000000000000000065
:10733000034B00221B605B609A601B615B617047BE
:1073400038A2FF1F00000000000000000000000045
:10735000002380F820308268054B1B6899689142B1
:10736000FBD25A680360426010605860704700BFEB
:1073700038A2FF1F00000000000000000000000015
:1073800008B5202383F3118890F820200023072AD2
:1073900011D8DFE802F0161010040B07100B426A38
:1073A000136008E0426A93680133936090E80C0030
:1073B0001A60026853604FF0FF334362FFF7C8FF63
:1073C000002383F3118808BD0000000000000000C6
:1073D000002380F820308268054B1B689968914231
:1073E000FBD85A680360426010605860704700BF65
:1073F00038A2FF1F00000000000000000000000095
:10740000084B996981F820001868142281F823201C
:1074100002681A6053609861012380F82030FAF7FF
:107420009FBF00BF38A2FF1F000000000000000047
:1074300030B54B1C87B005460A4C0DD0A3690A4AEB
:1074400001A8FFF73DFF2846FFF7DAFF049B2BB1A9
:1074500001A8FFF755FF01E0FFF7D2FFA369586AC3
:1074600007B030BD38A2FF1F81730000000000008C
:1074700038B50C4D4162AB6981689A689142044607
:1074800003D8BDE83840FFF763BF1846FFF760FF39
:1074900001230146AC6184F820302046BDE8384025
:1074A000FAF75EBF38A2FF1F0000000000000000D6
:1074B000084A136892699B68906892F8232022B169
:1074C000834294BF002001207047834234BF0020D4
:1074D0000120704738A2FF1F0000000000000000DC
:1074E00010B50A4C2368A0691A6822605460012212
:1074F000A36183F82020142380F82330FFF728FFAE
:107500000146A069BDE81040FAF72ABF38A2FF1F64
:1075100010B5094C2368A0691A68226054600122E2
:1075200083F82020A361FFF753FF0146A069BDE85F
:107530001040FAF715BF00BF38A2FF1F000000007F
:10754000044B1A689B6992689B689A4201D9FFF7BD
:10755000DFBF704738A2FF1F0000000000000000DE
:107560000E4B10B51A689869116819604B600121BB
:107570009A6182F8201092F823201C4632B9FFF756
:10758000E7FE1423014680F8233002E0FFF720FFD6
:107590000146A069BDE81040FAF7E2BE38A2FF1F1D
:1075A0008260C263012280F822200D4A816130B5D9
:1075B00051690261022480F82040142500244161B1
:1075C00080F8214080F8235084634463086150614F
:1075D00000F12802826200F12C02C262026330BD17
:1075E00038A2FF1F000000000000000000000000A3
:1075F000034680685A6840F82C2CA0F16C0240F8D1
:107600003C2C1A6940F86C2C5A6940F8682C044AE2
:1076100040F84C2C1968DA684838FFF7C1BF00BF42
:1076200071230000000000000000000000000000C6
:1076300010B5202383F31188FFF7DAFF00210446F9
:10764000FFF716FF002383F31188204610BD0000CA
:1076500010B5202484F311884839014441F8243CB2
:10766000029BC86141F8203CA1F12400084B41F87D
:10767000043CC86008460749FFF792FF0021044612
:10768000FFF7F6FE002383F31188204610BD00BFEC
:1076900071230000A4ED00000000000000000000C5
:1076A0000F4B10B59C696062234653F8280F98422F
:1076B00004D00368A362FFF74BFEF5E794F822308D
:1076C0004BB994F821309B0701BF636922691A61A5
:1076D000226908BF53610F20BDE81040FFF790BE3C
:1076E00038A2FF1F000000000000000000000000A2
:1076F000202383F31188FFF7D3BF000000000000B0
:1077000008B50146202383F311880820FFF790FE77
:10771000002383F3118808BD000000000000000072
:1077200008B5202383F31188064B1A689B69926879
:107730009B689A4201D3FFF7D3FE002383F311889D
:1077400008BD00BF38A2FF1F0000000000000000BD
:1077500010B5054CA369036058620320FFF750FE83
:10776000A369586A10BD00BF38A2FF1F00000000C7
:10777000054B9B6921B1036058620320FFF758BE97
:107780004FF0FF30704700BF38A2FF1F000000001D
:1077900003682BB10022026059621846FFF7D8BD7A
:1077A0007047000000000000000000000000000022
:1077B00049B1064B42689B6918605A601360436088
:1077C0000420FFF735BE4FF0FF30704738A2FF1F8F
:1077D0000368834206D01A680260506059621846F6
:1077E000FFF7B6BD70470000000000000000000079
:1077F00000604060816070470000000000000000F1
:107800008368013B002B10B583600DDA074CA36938
:107810005862426818605A60136043600520FFF7A1
:10782000EFFDA369586A10BD002010BD38A2FF1FEC
:1078300008B5202383F31188FFF7E2FF002383F3C9
:10784000118808BD000000000000000000000000DA
:1078500083685A1E002A10B5826011DA19B9836054
:107860004FF0FF3010BD074B9B69586242681860AB
:107870005A60BDE81040136043600520FFF7D8BD93
:10788000002010BD38A2FF1F000000000000000013
:1078900008B5202383F31188FFF7DAFF002383F371
:1078A000118808BD0000000000000000000000007A
:1078B00082680132002A0346826007DC00680268A1
:1078C0001A60536000234362FFF742BD7047000017
:1078D00010B50B461B688B4204D09C6882689442AA
:1078E000F8D219464B68016043601860486010BDCB
:1078F00000230060406083607047000000000000CB
:1079000070B51F4B84689D690646002C33D0AB6868
:10791000A2689A4225D2A36094F82030062B0BD09F
:10792000072B15D0EBB994E80C001A6022682046AA
:107930005360FFF70DFD14E094E80C001A60226814
:10794000616A53602046FFF7C3FF636A9C68DEE705
:1079500094E80C001A602268616A53602046FFF7C1
:10796000B7FF28463146FFF7B3FF6E620620BDE839
:107970007040FFF745BDAB6B8560C360A86370BD09
:1079800038A2FF1F000000000000000000000000FF
:1079900008B5202383F31188FFF7B2FF002383F398
:1079A000118808BD00000000000000000000000079
:1079B000144A38B591690346202282F31188C268BF
:1079C00000688A63984217D0CC6B42B11568954223
:1079D00003D0AD68AC4238BF2C46D268F5E70268E8
:1079E0008C601A605360826B9860DA608363FFF783
:1079F000AFFCFFF7A5FD01E000238360002383F3C4
:107A0000118838BD38A2FF1F0000000000000000F0
:107A100010B5202484F3118804680C6001600548C7
:107A200080698A6000224860CA600B6182F3118815
:107A300010BD00BF38A2FF1F0000000000000000C2
:107A40000246202383F311880023C068D36083F3A8
:107A500011887047000000000000000000000000D6
:107A6000436B194390F8203041630A2B03D1436ADA
:107A7000194206D170470B2B07D1436A194099422E
:107A800003D100234362FFF763BC7047000000008E
:107A900070B5046805460E46AC420CD0E36833432B
:107AA000E36016B12269134203D06068A168FFF752
:107AB000D7FF2468F0E770BD000000000000000060
:107AC00008B5202383F31188FFF7E2FFFFF738FDA5
:107AD000002383F3118808BD0000000000000000AF
